:02000004080AE8
:1000000000000A085C6E0A080000060006000501F0
:080010000402E50C00000000F1
:0400180084550A08F9
:1000200009480A4908B5884205D0094A824202D0E7
:10003000121A05F02DF90748074A0021121A05F097
:100040004FF9064808BD00BF00000020A45D0A0863
:100050009010002090100020ED260020ED260020BA
:1000600070B502F0DDFF0025054E064CA41BA40868
:10007000AC4200D170BD56F8043B98470135F7E714
:100080005C5D0A08945D0A0800F0C6BA08B500F085
:10009000D1FBBDE8084002F07BBF01F00DBB01F0D1
:1000A0000BBB01F011BB0078B0FA80F0400970473B
:1000B0000123037070470000C3781BB3174BDA6845
:1000C0004378D243C2F30222C2F10401C9B28B4089
:1000D000D9B20F2313418278134002780B431B01DE
:1000E00002F16042DBB202F5614282F8003303782C
:1000F0000122590903F01F0302FA03F3084A42F8E8
:1001000021307047037801215A0903F01F039940F9
:1001100002F12003024A42F82310704700ED00E08C
:1001200000E100E0436810B523F040720B6822F450
:10013000807213430A7943EA02234360CA680B6959
:1001400084681A438B681A43084B234013434A7947
:1001500043EA42038360C36A23F470020B7D013BD0
:10016000DBB242EA0353C36210BD00BFFDF7FFC01C
:1001700010B5074C074B6268134090E80600114326
:1001800082681143C2680A431343636010BD00BF15
:1001900000230140E030FCFF836811B143F001030C
:1001A00001E023F0010383607047092970B50CD981
:1001B000A1F10A04C66804EB44040725A54026EA19
:1001C0000505A3402B43C36009E0056901EB410627
:1001D0000724B44025EA0404B34023430361062AFC
:1001E0000BD8013A446B02EB82021F23934024EAAE
:1001F000030391401943416370BD0C2A0BD8073AA1
:10020000046B02EB82021F23934024EA0303914014
:100210001943016370BD0D3AC46A02EB82021F23C9
:10022000934024EA030391401943C16270BD83687F
:1002300043F0804383607047044B5A6810B142F426
:10024000005201E022F400525A607047002301403E
:100250000268134B10B51340CC680A6814434A690E
:1002600014438A691443CA6914430A6A14434A6AE4
:1002700014438A6A14434A6B14438A6B2243134320
:10028000036043690C6B23F00702CB6A23431343DB
:1002900043610B6943604B6883608B68C36010BD2A
:1002A0003F801CF0036811B143F0010301E023F02B
:1002B00001030360704700000A4B10B50A4A0B4C5B
:1002C000A04294BF184610468B004CBF4368036899
:1002D00021F0F02121F08211194214BF01200020E9
:1002E00010BD00BF00600240006402400F64024085
:1002F00010B5084A084B094CA04294BF1846104656
:1003000011F0005F21F0F02121F0821114BFC160D3
:10031000816010BD00640240006002400F64024032
:10032000044B1A6B09B1104301E022EA0000186384
:10033000704700BF00380240044B1A6C09B11043EB
:1003400001E022EA00001864704700BF0038024054
:10035000044B5A6C09B1104301E022EA00005864D2
:10036000704700BF003802401C4A038890429BB28D
:1003700012D002F5806290420ED0B0F1804F0BD0C7
:10038000A2F58032904207D002F58062904203D0FD
:1003900002F58062904203D14A8823F07003134330
:1003A0000F4A904208D002F5806290421FBF23F4AA
:1003B00040730A899BB2134303804B68C3620B8866
:1003C0000385064B984203D003F58063984201D120
:1003D0008B7A038601238382704700BF00000140AF
:1003E000001000404FF0FF3343600023038003817F
:1003F000438083727047038819B19BB243F00103B5
:1004000003E023F001031B041B0C03807047838867
:1004100023F070031B041B0C838083889BB2194359
:100420008180704710B5194C2378433B062B0FD8B9
:10043000DFE803F022040E0E0E190F00002108461B
:1004400002F094FE0021022002F090FE4823237067
:1004500010BD0021084602F089FE0021022002F0B2
:1004600085FE4323F3E70A4B00201A68094B1968FD
:1004700002F0A2FE4923EAE7074B02201A68074B65
:10048000196802F099FE4423E1E700BF2010002024
:10049000101000200C10002004100020001000207C
:1004A00008B5006804F0F0FE054B0A2818609DBFEF
:1004B0000D234343034A4FF0FF3098BF136008BD3C
:1004C000D81000200C10002008B5006804F0DCFEF5
:1004D000054B0A2818609DBF0D234343034A4FF084
:1004E000FF3098BF136008BDA0100020001000204E
:1004F000436913B183690C301847704713B5002165
:100500000446084600F06AFE0023204601A9019334
:1005100000F07CFE019C0CB101232371002101201D
:1005200000F05CFE2CB1236820469B6898470023AE
:10053000237102B010BD012A02D101600020704772
:10054000022A04BF0B680360F8E70368184700003D
:1005500013B5006804F098FE0D4CA0F12102B2F52D
:10056000EA7F0346206010D20A4A906850B16FF0CB
:1005700000410022CDE90012074991FBF3F303216A
:1005800000F04CFE206802B010BD0020FBE700BF69
:10059000D4100020DC10002090D0030010B5836838
:1005A000044613B1032201469847204610BD0000BF
:1005B00037B5134B044603608068C8B100256FF05F
:1005C00000430221CDE900352A462B4600F026FEE5
:1005D0002946A06800F03AFE237903F0FF0513B125
:1005E00000F0F4FDF8E72946A06800F007FEA560DA
:1005F00004F10C00FFF7D2FF204603B030BD00BF6E
:100600003C560A0810B50446FFF7D2FF20461C21CD
:10061000FFF747FD204610BD13B502F0C5FB4FF4B0
:10062000165102F0A7FB4FF400611F4800F0EEFAEC
:10063000002309221D491E4800F0B6FF1D4A1E492D
:100640001E4801F0E8F81E4A1E491C4801F0E3F874
:100650001D4A1E49194801F0DEF80121002002F070
:100660005BFD0121022002F057FD0121084602F046
:1006700053FD0121164C084602F05FFDA06830B121
:10068000002302211A46CDE9003300F0C7FDA0681F
:1006900040B100236FF000421946CDE900231A460D
:1006A00000F0BCFD02B010BD90100020181000201A
:1006B00098550A08A4550A0851050A08EB170A08B4
:1006C000AE550A08A1040A08BC550A08C9040A085C
:1006D000DC10002010B50446006818B1A168091AA2
:1006E000FFF7DFFC204610BD2DE9F84F6FF0704397
:1006F000D0E900899346A9EB0802B3EBE20F074665
:100700008A464FEAE20402D1204802F000FE012CA2
:10071000224638BF0122A418A1EB080531D294B3B8
:100720009C4228BF1C46E000FFF7B7FC0646711943
:1007300003D0DBE90023C1E90023002D04DD2A46B4
:100740004146304604F0B2FDA9EB0A090835B9F17B
:10075000000F354404DD4A465146284604F098FD12
:100760004D44B8F1000F05D0B9684046A1EB08012F
:10077000FFF797FC06EBC404C7E90065BC60BDE861
:10078000F88F1C46CFE72646D1E700BFCB550A08B5
:10079000814210B51346A1EB000405D00146224664
:1007A000184604F083FD0346181910BD81422DE957
:1007B000F04104460E4623D0D1E9007802688368F0
:1007C000A8EB07059B1A9D421ED9DDB1184B9D422F
:1007D00001D902F099FD2846FFF75FFC0646324634
:1007E00041463846FFF7D4FF206818B1A168091ABE
:1007F000FFF757FC26602E44A66023682B446360F5
:10080000BDE8F0812E46EAE743689B1A9D4204D872
:1008100041463846FFF7BCFFEFE7F9183846FFF7C7
:10082000B7FFD4E90002D6E90031101A1844F1E705
:10083000F8FFFF7F2DE9F04FA849A9488DB0FFF7D9
:100840003BFD044620B1A549A548FFF751FDA54C45
:10085000A549A348FFF730FD002800F0FA80A2491F
:100860009F48FFF745FDA14C002600270025DFF833
:1008700080A204F1020B3BF81500FAE80223CDE94F
:10088000022304F089F9804634F81500894604F003
:1008900083F902460B464046494604F041F80022DF
:1008A000944B04F0F3F9DDE9022304F0EFF902467A
:1008B0000B463046394604F033F80235B5F5806F03
:1008C00006460F46D7D1CDE9066702F06DFA8A4990
:1008D00001F074FB02F068FA0423884D0093DDE90F
:1008E000062301F05DFCD5E90113994200F0B780C1
:1008F00019B1DDE90623C1E900236B6808336B6099
:10090000D5E90026B61AB6F5806F40F0A5807C4C7C
:100910002068A3681B1AB3F57E7F00F2A5804FF014
:1009200000083046CDE90988CDF82C80FFF7B5FBEB
:1009300007463246414600F5806904F0D1FC236841
:1009400009A809936368C4E900790A93A368C4F805
:1009500008900B93FFF7BEFE4FF0000A4FF0000B1C
:10096000022666496748FFF721FF654A634909A8DF
:1009700000F056FACDE902AB634F2B6803EBC603D8
:10098000D3E900012368024603EBC603D3E90089DB
:100990000B4604F07BF94246CDE904014B46404644
:1009A000494604F073F902460B46DDE9040103F001
:1009B000B7FFC7E9000102F0F7F9544901F0FEFA68
:1009C00002F0F2F904230093D7E9002301F0E8FBD9
:1009D000022E6CD1D7E900234FF0000ACDE90223A3
:1009E000DFF82CB10136412EC7D10022494B5046C9
:1009F000594604F04BF9484C00230922C4E9000190
:100A00002146464800F0D0FD02F0CEF9444901F0FD
:100A1000D5FA02F0C9F904233A4D0093D4E9002332
:100A200001F0BEFB2B686A6803F5A074944205D000
:100A300018462146121B04F039FC03466A68314906
:100A4000141B23449A422D4818BF6B60FFF7AEFE7B
:100A500002E0002C7FF408AF0DB0BDE8F08F28460F
:100A600006AAFFF741FE4BE76268121AB2F57E7FD5
:100A700012D8002104F034FCD4E90020821AD210EC
:100A8000D2F1800206D000EBC2060021D20004F0B1
:100A900027FC304660605FE73246002100F5806742
:100AA00004F01EFC6368BB4218BF676054E7D7E9D7
:100AB0000089DDE902234046494604F077FB00281F
:100AC00090D0304604F068F80022164B04F0DEF8AF
:100AD000CDE9028982468B4684E700BF10000010F2
:100AE00010640240F810002020000010F6180020CA
:100AF000000000200000E03FE5550A08C810002073
:100B0000BC100020B0100020A8100020F7550A08E3
:100B10000000B03F00004E401810002013560A0895
:100B200024560A080000A03F0023234AF0B5C2E97A
:100B300000339360214A89B0C2E900339360204AB0
:100B40000A21C2E9003393601E484FF400631E4A35
:100B500000F052F81D4B1E4A1D681E4B04AC049356
:100B60001D4B02AF1A60002294E8030087E80300DF
:100B700003F10C0696E8030084E8030097E80300FD
:100B800086E803001549002D59619969B8BF0335FE
:100B9000079113491A719A6099610692CDE9002272
:100BA000A910104A03F1080000F020FB2046FFF7CF
:100BB000F5FC09B0F0BD00BFC8100020BC1000203B
:100BC000B010002090100020F81000200810002025
:100BD0003C560A0825040A08DC10002037050A08DC
:100BE0004B050A08FD040A08704710B50446102199
:100BF000FFF757FA204610BD30B5034DC0E9022378
:100C0000C0E9005130BD00BF50560A082DE9F0433D
:100C100006469FB00F464FF480000121FFF780FB8E
:100C200001214FF48070FFF793FB01214FF4007016
:100C3000FFF78EFB01210220FFF77EFB0621B08823
:100C40000024012500F02AFB382301A88DF8043088
:100C50008DF805408DF806408DF80750FFF72CFA07
:100C600002A8FFF7BFFB4549ADF81040B1FBF7F113
:100C7000434F01393846039102A90294FFF774FBF0
:100C800038462021FFF7C3FB29463846FFF7B3FB60
:100C9000B3684FF4006711933A4B4FF4005210932E
:100CA000F3684FF40031CDE913344FF48063CDE99C
:100CB00015374FF48073CDE917230423DFF8C8807C
:100CC000CDE9191340460FA9CDE91B540F94129496
:100CD0001D94FFF7BDFA29464046FFF7E3FA0623C5
:100CE000CDE905344FF4804305A8CDE90734FFF77B
:100CF0003FFA4FF000634FF080500D9707F18047A7
:100D000007F58C37A8F5A138CDE90B03A8F588784D
:100D1000384609A90994ADF828408DF83850FFF7F6
:100D200001FA09A94046FFF7FDF900F0A7FA4FF0D4
:100D30001C09044673682A4609FB03012B46384602
:100D4000C979FFF732FA70682B4609FB00442A463E
:100D5000E1794046FFF729FA2846FFF76DFA294660
:100D60003846FFF719FA29464046FFF715FA384684
:100D7000FFF75DFA1FB0BDE8F08300BF0087930363
:100D800000040040082301401064024038B50468A4
:100D900005467CB16368013B63605BB9236820460C
:100DA0009B689847A368013BA3601BB92368204652
:100DB000DB689847284638BD38B50446081E4FEA18
:100DC000C00507D0B0F1805F01D302F09DFA28463C
:100DD000FFF763F9C4E900002844A06038BD0000B3
:100DE000B1F1805FF8B504460D4602D30A4802F01F
:100DF0008EFA0026C0E900668660FFF7DDFF2068F6
:100E000035B100EBC5073146EA0004F069FA38460F
:100E100060602046F8BD00BF58560A080000000078
:100E20002DE9F04F9146D1E900238B469A1AD9E972
:100E300000135B1A9A429DB00CD0AD4B19A81B78D9
:100E4000AC4A8DF80030AC493C2300F0EDFD1AA807
:100E5000FFF79CFFDBE900239B1A4FEAE30A5346A6
:100E60000025012B02D901355B08FAE70123AB40CD
:100E700053450CD09E4B19A81B78A04A8DF8003022
:100E80009D493C2300F0D0FD1AA8FFF77FFF4FEAF1
:100E90005A08414619AA16A8FFF7A2FF414615AA0B
:100EA00019A8FFF79DFF0024A04528D0204603F095
:100EB00073FE8DA3D3E9002303F0E8FE06465046F7
:100EC0000F4603F069FE02460B463046394604F0F1
:100ED00007F806460F4602F035FB169BE20003EBCF
:100EE000C403C3E9000130463946039202F07CFB9B
:100EF000199B039A01341344C3E90001D4E7002489
:100F0000544533D0002322461E469D4206D002F0AF
:100F1000010141EA460601335208F6E7B44223D202
:100F2000DBF8003003EBC40703EBC603D7E900018D
:100F3000D3E90023C7E90023DBF8003003EBC60345
:100F4000C3E90001D9F8001001EBC40701EBC601A9
:100F5000D1E90001D7E90023C7E90001D9F8001061
:100F600001EBC601C1E900230134C9E70226564559
:100F700000F2AE8073081093BAFBF6F30025DB0095
:100F80001293B3001193554580F09E800023059382
:100F9000109B0395EB181393039B139A934280F0D5
:100FA0009180DBF80030039A0C93039BDC00119BCB
:100FB00003EBC2030493049A0C9B13440D930C9B04
:100FC00053F802800D9B059A5F68169B40461344B8
:100FD000D3E90023CDE90623049AD9F80030394635
:100FE0001344D3E90023CDE90823059A199B134440
:100FF000D3E90023CDE90A23DDE9062303F046FE09
:10100000DDE90A23CDE90E01DDE9080103F03EFE2A
:1010100002460B46DDE90E0103F082FCDDE90A23FE
:10102000CDE90E01404607F1004103F02FFEDDE956
:10103000082307468846DDE9060103F027FE02463D
:101040000B463846414603F06BFC0C9B8846191949
:101050000746DDE90E23D1E9000103F05FFC0D9B9B
:101060003A46C3E90001049BD9F80010CB1821448B
:10107000D1E900010493434603F050FC049BC3E90B
:101080000001DBF80030234404930499DDE90E23CA
:10109000D1E9000103F044FC049B3A46C3E9000196
:1010A000D9F800301C44D4E90001434603F038FC71
:1010B000039B129A01330393059BC4E90001134477
:1010C000059369E735445EE7564501D076004EE763
:1010D00019A8FFF7FFFA16A8FFF7FCFA1DB0BDE844
:1010E000F08F00BFAFF30080182D4454FB2119404E
:1010F000F820002089560A089C560A08A0560A08BB
:101100000122014B1A707047F820002038B50B4BB4
:101110008469054603607CB16368013B63605BB929
:10112000236820469B689847A368013BA3601BB9CE
:1011300023682046DB689847284638BDAC570A0824
:1011400010B50446FFF7E2FF20461C21FEF7A9FF79
:10115000204610BD08B5054801F0DCFA044801F04E
:10116000D9FABDE80840034801F0C0BC6421002062
:10117000FC20002018210020014801F0CBBA00BF5C
:1011800080210020002208B5064B07481A7001F0A4
:10119000C1FA064801F0BEFABDE80840044801F073
:1011A000A5BC00BF20220020042200209C2100209A
:1011B000B8210020014801F0ADBA00BF2422002070
:1011C000014801F093BC00BF4022002008B5024B4B
:1011D0001B68DB68019308BDD001060808B5024B07
:1011E0001B68DB69019308BDD001060808B5024BF6
:1011F0001B681B6A019308BDD001060808B5024BA5
:101200001B685B6A019308BDD001060808B5024B54
:101210001B689B6A019308BDD001060808B5024B04
:101220001B68DB6A019308BDD001060808B5024BB4
:101230001B685B6C019308BDD001060808B5024B22
:101240001B689B6C019308BDD001060808B5024BD2
:101250001B681B6F019308BDD001060808B5024B3F
:101260001B685B68019308BD9C01060808B5024B2A
:101270001B685B69019308BD9C01060808B5024B19
:101280001B681B68019308BDB001060808B5024B36
:101290001B685B68019308BDB001060808B5024BE6
:1012A0001B689B68019308BDB001060808B5024B96
:1012B0001B68DB68019308BDB001060808B5024B46
:1012C0001B681B69019308BDB001060808B5024BF5
:1012D0001B689B6A019308BDB001060808B5024B64
:1012E0001B689B6F019308BDB001060808B5024B4F
:1012F0001B68DB6F019308BDB001060808B5024BFF
:101300001B681B6E019308BDAC01060808B5024BB3
:101310001B685B6E019308BDAC01060808B5024B63
:101320001B689B6E019308BDAC01060808B5024B13
:101330001B68DB6E019308BDAC01060808B5024BC3
:101340001B681B6F019308BDAC01060808B5024B72
:101350001B685B6F019308BDAC01060808B5034B21
:101360001B68D3F88030019308BD0000AC0106086B
:1013700008B5024B1B681B68019308BDBC01060839
:1013800008B5024B1B685B68019308BDBC010608E9
:1013900008B5024B1B689B68019308BDBC01060899
:1013A00008B5024B1B68DB68019308BDBC01060849
:1013B00008B5024B1B681B69019308BDBC010608F8
:1013C00008B5024B1B68DB69019308BDBC01060828
:1013D00008B5024B1B681B6A019308BDBC010608D7
:1013E00008B5024B1B681B6B019308BDBC010608C6
:1013F00008B5024B1B685B6C019308BDBC01060875
:1014000008B5024B1B689B6C019308BDBC01060824
:1014100008B5024B1B68DB69019308BDB4010608DF
:1014200008B5024B1B681B6A019308BDB40106088E
:1014300008B5024B1B685B6A019308BDC40106082E
:1014400008B5024B1B689B6A019308BDC4010608DE
:1014500008B5024B1B68DB6A019308BDC40106088E
:1014600008B5024B1B681B6B019308BDC40106083D
:1014700008B5024B1B685B6B019308BDC4010608ED
:1014800008B5024B1B689B6B019308BDC40106089D
:1014900008B5024B1B681B6C019308BDC40106080C
:1014A00008B5024B1B681B6E019308BDC4010608FA
:1014B00008B5024B1B681B68019308BDD8010608DC
:1014C00008B5024B1B685B68019308BDD80106088C
:1014D00008B5024B1B681B69019308BDD8010608BB
:1014E00008B5024B1B685B69019308BDD80106086B
:1014F00008B5024B1B689B69019308BDD80106081B
:1015000008B5024B1B68DB69019308BDD8010608CA
:1015100008B5024B1B681B6A019308BDD801060879
:1015200008B5024B1B685B6C019308BDC00106083F
:1015300008B5024B1B689B6C019308BDC0010608EF
:1015400008B5024B1B681B6D019308BDA80102087A
:1015500008B5024B1B685B68019308BDA40106082F
:1015600008B5024B1B68DB6C019308BDA40106089B
:1015700008B5024B1B685B6D019308BDA40106080A
:1015800008B5034B1B68D3F89030019308BD0000E9
:10159000A401060808B5034B1B68D3F89C300193DF
:1015A00008BD0000A401060808B5024B1B681B68B3
:1015B000019308BDCC01060808B5024B1B685B68A7
:1015C000019308BDCC01060808B5024B1B685B6996
:1015D000019308BDCC01060808B5024B1B681B6AC5
:1015E000019308BDCC01060808B5024B1B68DB6BF4
:1015F000019308BDCC01060808B5024B1B685B6867
:10160000019308BDC801060808B5024B1B689B681A
:10161000019308BDC801060808B5024B1B68DB68CA
:10162000019308BDC801060808B5024B1B681B6979
:10163000019308BDC801060808B5024B1B685B6929
:10164000019308BDC801060808B5024B1B689B69D9
:10165000019308BDC801060808B5024B1B68DB6989
:10166000019308BDC801060808B5024B1B681B6A38
:10167000019308BDC801060808B5024B1B681B6B27
:10168000019308BDC801060808B5024B1B685B6BD7
:10169000019308BDC801060808B5024B1B681B6C06
:1016A000019308BDC801060808B5024B1B685B6CB6
:1016B000019308BDC801060808B5024B1B681B68EA
:1016C000019308BDA001060808B5024B1B685B68C2
:1016D000019308BDA001060808B5024B1B689B6872
:1016E000019308BDA001060808B5024B1B68DB6A20
:1016F000019308BDA001060808B5024B1B681B6BCF
:10170000019308BDA001060808B5024B1B68DB6BFE
:10171000019308BDA001060808B5024B1B681B6CAD
:10172000019308BDA001060808B5024B1B685B6C5D
:10173000019308BDA001060810B5836804460BB9E3
:1017400001F0E8FDC3689847A3681BB10322214656
:10175000204698472046BDE810401021FEF7A1BC66
:1017600070470020704710B504461021FEF799FC21
:10177000204610BD08B5FFF7F6FF08BD002230B5C2
:101780004FF69C74026084808D888C800C68858004
:1017900004600A6030BD10B504460068FFF794FF8E
:1017A000204610BD38B5C468F4B12378022B03D1AC
:1017B00004F10C00FFF7EFFF656835B12846FEF72E
:1017C000EDFE10212846FEF76CFCA56835B12846D1
:1017D000FEF7E4FE10212846FEF763FC2046BDE834
:1017E00038401421FEF75DBC38BD10B588B0044602
:1017F000684600F042FD694604A800F060FD04A8B8
:10180000A047044604A800F0EEFC684600F0EBFC9C
:10181000204608B010BD1FB500231024CDE90201F9
:10182000019269461A461846ADF80230ADF80040FC
:10183000FFF7C2FE04B010BD0B6803604B68436045
:1018400013B15A6801325A60704737B5044668468A
:101850000D46FFF7F1FF009B019A236000236260B1
:1018600001A801930093FFF791FA35B1281DFFF706
:101870008DFA08212846FEF714FC204603B030BD3F
:1018800013B56C460B46024603C884E8030093E890
:10189000030082E8030094E8030083E8030002B039
:1018A00010BD826810B50AB901F034FDC368BDE807
:1018B0001040184708B5006800F11001FFF7F1FF6C
:1018C00008BD826810B50AB901F024FDC368BDE8FF
:1018D0001040184708B5006800F11001FFF7F1FF4C
:1018E00008BD000038B500230446036010200D46F3
:1018F000FEF7D3FB28B10123C0E90133024BC560D9
:1019000003602060204638BDC4560A0838B500235D
:1019100083608B6804460D462BB102229847EB6822
:10192000E360AB68A360204638BD0000F0B589B025
:1019300004686846FFF722FF4FF00203D4E84F2FF8
:10194000002A03D1C4E8413F0029F7D125D104F191
:101950000C0569462846FFF711FF0123BFF35B8F93
:1019600063700020BFF35B8F04F1080353E8006F3E
:1019700043E80002002AF9D1BFF35B8F6EB1FFF795
:10198000EFFD78B129463046FFF78BFF3046FEF772
:1019900005FE10213046FEF784FB6846FFF7FBFE8C
:1019A00009B0F0BD314602A8FFF7B0FFE068B4F916
:1019B000105008B103F0D4FC06901020ADF81C5074
:1019C000FEF76BFB0546E8B1002787601820FEF79D
:1019D00064FB044688B10146876002A8FFF750FF08
:1019E000049BA268A360059B0492E26806A9E360D9
:1019F00004F110000592FFF7C1FE084B2C60EB606C
:101A0000074BAB6006A8FFF7C6FE02A8FEF7C6FDAF
:101A1000002229460348FFF7ABFDB7E7B5180A08CF
:101A2000411B0A0839170A082DE9F0478AB0054614
:101A30000C46174698469DF84890FFF7C5FD07AE3F
:101A4000824638BB4FF62E73059005A93046ADF897
:101A50001830FFF793FE1420FEF71FFB044648B131
:101A6000022303700123C0E901AA437031460C3000
:101A7000FFF784FE2846214640F8044BFFF732FF6B
:101A80003046FFF788FE05A8FFF785FE28460AB016
:101A9000BDE8F0870C234FF0000A1420CDE908AA16
:101AA0000793FEF7FAFA014628B1C0E901AA80F8C7
:101AB00000A080F801A004A80391FFF713FF1F4BBB
:101AC00008200893FEF7E9FA824610B103A9FFF750
:101AD000B3FE42463946204600965FFA89F3CDF8B8
:101AE00024A0FFF779FDB8B9039B5B7803F0FF02F0
:101AF00093B94FF69C7305A903A80592ADF8183069
:101B0000FFF714FF05A8FFF746FE05A80999FFF7A0
:101B10009CFE06A8FFF73AF903A905A8FFF78CFE7B
:101B2000059B069A2B6000236A6006A8069305931E
:101B3000FFF72CF904A8FFF729F9A7E7BD1B0A084E
:101B4000012AF8B5054603D10B6803600020F8BDF3
:101B5000022A10D0032AF9D10468002CF6D004F12F
:101B60001000FFF718FE2046FEF718FD182120464A
:101B7000FEF797FAEAE718200E68FEF78EFA044699
:101B800050B13146FFF7C2FE3069B6F9147008B1A2
:101B900003F0E6FB2061A7822C60D7E738B500236D
:101BA00083608B6804460D462BB102229847EB6890
:101BB000E360AB68A360204638BD0000F0B5044682
:101BC00089B00D4601A81146FFF73FFEA4B124B22B
:101BD0001DB1284603F0C4FB054601A803A90395DF
:101BE000ADF81040FFF7A2FE03A8FFF7D4FD02A84E
:101BF000FFF7CCF809B0F0BD0123019DD5E84F2FC8
:101C0000002A03D1C5E8413F0029F7D1EFD12B735A
:101C1000BFF35B8F6B70BFF35B8F2B1D53E8006FBF
:101C200043E80042002AF9D1BFF35B8F002EDED0DB
:101C30002046FFF795FC074660B1304605F10C01E0
:101C4000FFF73FFE3046FEF7A9FC10213046FEF7B5
:101C500028FACCE7314603A8FFF7A0FF2B7B102022
:101C60008DF81C30FEF719FA0546D0B187601420B4
:101C7000FEF713FA044678B10146876003A8FFF720
:101C8000FFFD059BA268A360069B0592E268E360E6
:101C90009DF81C3006922374064B2C60EB60064BBB
:101CA000AB6003A8FEF77AFC002229460348FFF741
:101CB0005FFCC7E7D5180A08C11C0A0839170A08CB
:101CC000012A70B5044603D10B680360002070BD83
:101CD000022A0CD0032AF9D10468002CF6D0204641
:101CE000FEF75CFC14212046FEF7DBF9EEE714203A
:101CF0000E68FEF7D2F9054620B13146FFF74EFFD8
:101D0000337C2B742560E1E77047F8B5064615462D
:101D10000C468F18BC4206D0336830469B6814F8D6
:101D2000011B9847F6E72846F8BD0022007CFFF724
:101D3000E5BA0021007CFFF7E9BA0021007CFFF73B
:101D4000EDBA0021007CFFF7F1BA0021007CFFF71B
:101D5000F5BA10B504461421FEF7A3F9204610BDCC
:101D600010B54FF47A73044608460021C4E9011304
:101D7000034B114623602074FFF7F0FA204610BD94
:101D8000E0560A087047F8B50E46002400F108072F
:101D9000051D17F8011D0A22304600F022F9AF4256
:101DA000044401D12046F8BD002CF2D02E2130464B
:101DB00000F008F90444ECE710B504461821FEF7DA
:101DC00070F9204610BD000010B50446044B1122E6
:101DD000002140F8043B03F083FA204610BD00BF09
:101DE00008570A080346074A10B543F8042B01F1C7
:101DF000100251F8044B914243F8044BF9D10A7890
:101E00001A7010BD08570A08024AC0E900210422CE
:101E10000275704708570A0810B59DF8084044EA53
:101E20000324042344EA024444EA01644460037541
:101E300010BD000013B5044C04609DF810400094E0
:101E4000FFF7EAFF02B010BD08570A0807B5064BB6
:101E50000360CB7800938B784A780978FFF7DCFF32
:101E600003B05DF804FB00BF08570A08014B024AA3
:101E70001A6070478C22002014570A08002340681B
:101E80001A46FFF7B9BB002202214068FFF7C4BB26
:101E9000002240681146FFF7B7BB00224068114698
:101EA000FFF7C2BB002340681A461946FFF7C4BBC0
:101EB000002340681A461946FFF7C6BB0021406858
:101EC000FFF7EABB00214068FFF7EEBB0022406845
:101ED00081F00101FFF7C0BB00224068FFF7CCBBD7
:101EE000002240681146FFF7CFBB00224068114630
:101EF000FFF7BABB70B515468EB0044608A8FFF7C9
:101F000063FF1122002103A803F0EAF90026284606
:101F100003F041FA0A4B009681B25B68284603AA97
:101F2000FFF706FB30B131462046FFF76DFF204634
:101F30000EB070BD204603A9FFF754FFF7E700BFBE
:101F4000F0250020034A044B042814BF104618460D
:101F5000704700BF90220020F0250020024B034A6A
:101F60001A6000225A6070479022002020570A0809
:101F7000F8B506460D4600248F18BD420CD03368D4
:101F800030469B6815F8011B9847031E01DB1C4473
:101F9000F3E7002C08BF1C462046F8BD70B5054687
:101FA0000C46084649B103F0F6F92B680246214673
:101FB0002846BDE87040DB68184770BD08B5FFF7DC
:101FC000EDFF08BD03689B68184738B50D2105462D
:101FD000FFF7F8FF0A2104462846FFF7F3FF2044E5
:101FE00038BD0023012A98BF0A2230B58BB00C46B9
:101FF0008DF8243009A92546B4FBF2F404FB1253F2
:10200000DBB2092B94BF30333733DBB2AA4201F87D
:10201000013DF0D9FFF7C2FF0BB030BD2DE9F74FFE
:1020200005461946104692461F469DF8306003F05B
:10203000C7F840B151492846FFF7B0FF0446204693
:1020400003B0BDE8F08F27F000444FF0FF32504658
:1020500021464B4B03F0B4F848B94FF0FF325046DD
:102060002146474B03F08EF808B94649E3E74FF0A5
:10207000604250463946444B03F098F808B1434952
:10208000D9E74FF0604250463946414B03F070F8B3
:102090000028F4D1002200235046394603F068F8A6
:1020A000044630B12D212846FFF78CFF044607F186
:1020B00000474FF0000B00204FF000083549DFF8D3
:1020C000D8905FFA8BF39E4206D942464B4602F007
:1020D00007FF0BF1010BF4E73B46524602F020FCF0
:1020E0008946804603F0AAF8074602F055FD0246ED
:1020F0000B464046494602F011FC0A2280468946BA
:1021000028463946FFF76DFF0444002E97D0284635
:102110002249FFF743FF4FF0000ADFF87CB0044488
:10212000002E8CD052465B464046494602F0AEFD3A
:102130008046894603F05AF8071E1BDA2D212846EF
:10214000FFF740FF034679420A2228460193FFF732
:1021500048FF019B013E034438461C4402F02CFD1D
:1021600002460B464046494602F0D8FBF6B280468E
:102170008946D5E739460023E6E700BF54570A08E9
:10218000FFFFEF7F58570A08FFFFEF415C570A082F
:10219000FFFFEFC10000E03F0000244060570A0845
:1021A00037B59DF8181005460091FFF737FF044634
:1021B0002846FFF70AFF204403B030BD0022014B40
:1021C0009A6070479822002070B5002604460D469C
:1021D00040F8086FFFF72AF828462570FFF718F92E
:1021E0002046666070BD10B504460068FFF76CFAC3
:1021F000204610BD10B50446006808B1FFF764FA28
:102200000023C4E90133236010BD38B504460D46F0
:1022100000680131FFF760FA10B1C4E90005012040
:1022200038BD10B50368044623B143688B4201D31F
:10223000012010BD2046FFF7E8FF0028F9D0A36871
:10224000002BF5D122681370F2E770B50E461146E7
:1022500004461546FFF7E5FF20B92046FFF7CAFF01
:10226000204670BD2A4631462068A56003F010F86C
:1022700000212268A368D154F2E738B50023044650
:102280000D46C0E900338360037339B1084603F09B
:1022900082F8294602462046FFF7D7FF204638BD80
:1022A000884210B50B46044604D0096821B19A68EB
:1022B000FFF7CBFF204610BDFFF79CFFFAE7002396
:1022C00010B50446C0E9003383600373FFF7E8FFED
:1022D000204610BD02220020044B1A60044B054A20
:1022E000C3E900009A60FFF733B900BFB4220020B1
:1022F000A82200200000FFFF13B503688DF8071027
:10230000DC6B012247F230530DF10701A04702B008
:1023100010BD10B40368DC6B47F23053A44610BC08
:10232000604713B5134602688DF80710D46B0DF1A2
:1023300007010122A04702B010BD10B54369044651
:10234000B3F88620B3F884309A4208D06369B3F8B2
:102350008420511CA3F884101344187910BD03681D
:102360001B6998470028F1D14FF0FF30F6E770471E
:102370007047000010B50446064B0846994204F128
:102380000C0404D000F0CAFF002808BF0024204637
:1023900010BD00BF9C570A0810B50446AC21FDF7DC
:1023A00080FE204610BDAC21FDF77BBE70B5044613
:1023B00006464D69044B8C3544F8043B0FCD0FC4E1
:1023C0002B683046237070BD08570A0810B5436962
:1023D0000446B3F88620B3F884309A4205D0636986
:1023E000B3F884201344187910BD03681B6998471B
:1023F0000028F4D14FF0FF30F6E7F8B543691746EF
:10240000B3F88620B3F8843005469A420E4616D0BB
:1024100069693046B1F88430B1F88640E41ABC42AC
:1024200028BF3C4604332246194402F031FF6A6952
:10243000B2F884302344A2F884302046F8BD036803
:102440001B6998470028E3D14FF0FF34F5E70023DC
:102450004269A2F884304269A2F8863070470000D1
:102460002DE9F0431F4603688BB0DB6A05460C4636
:10247000164698473846FFF765FD0368DB689847BE
:10248000002854D033460622012102200097D5F8B7
:102490001480FEF77DFF2023C8F800004FF00008ED
:1024A000CDE902386B6901201B6823490193234B56
:1024B00002AA00934346FFF743F86B691868FEF7DA
:1024C0005FFF002833D02846FFF7C1FF0223ADF895
:1024D0000830E37976BA8DF80C30A3794FF4FA50CE
:1024E0008DF80D306379ADF80A608DF80E3014F870
:1024F000043F8DF80F30FFF713F86B690646102282
:10250000186802A9FEF74CFF81463046FFF708F82D
:102510000FCC6E698C360FC6236833702F61B9F10A
:10252000000F07D02B682846DB6A984740460BB05F
:10253000BDE8F0830120FAE762570A0869570A08E4
:1025400038B542690446B2F886302BB1B2F884201F
:102550009A4201D1FFF77BFF2069FFF7F3FC036884
:10256000DB689847F8B163691868FEF709FFD0B1D6
:102570006069B0F886107F2915D8051DC1F1800269
:10258000002300682944FEF713FF00280BDD636970
:10259000B3F886200AB9A3F884206369B3F88620CB
:1025A0001044A3F886006369B3F88600B3F884305A
:1025B000C01A38BD38B5436904461868FEF7E0FE16
:1025C00018B163691868FEF703FF6569FEF708FF35
:1025D00028606069112200218C3002F081FE2046C3
:1025E000BDE83840FFF733BF10B5436904461868AB
:1025F000FEF7C6FE08B9002010BD2069FFF7A2FC57
:102600000368DB6898470028F5D063691868FEF70F
:10261000AFFEB0FA80F04009EEE708B5FFF7E4FF3F
:10262000003818BF012008BD2DE9F341002747609D
:1026300004460D4616469846FFF7D6FF70B1CDE921
:10264000008760693B46324629460068FEF7D0FEA7
:10265000002800DA606002B0BDE8F0814FF0FF3082
:10266000F8E770B50546FFF7BFFFE8B96B69B3F847
:102670008610B3F88420914216D11868FEF780FEC8
:1026800008B9002070BD6B691868FEF771FE01285B
:102690000446F6D12B6828461B69984730B92B6849
:1026A0002846DB6A9847ECE70120EBE72046E9E79C
:1026B000002310B504460160C0F884308830FFF76D
:1026C00083FB204610BD0000F8B54FF47A7200235A
:1026D000C0E901320D4A0361026043610446AC2047
:1026E0000E46FDF7DAFC051E05F10C0708D00123A4
:1026F000C5E90133064B314638462B60FFF7D8FF5A
:102700002046C4E90575FFF7A2FEF8BDAC570A08DC
:1027100088570A0810B50446FEF762FE01462046B7
:10272000FFF7D2FF204610BD10B504460068FEF743
:1027300027FE10B12068FEF74BFE204610BD0C307E
:10274000FFF7F2BF2DE9F0431F4603688FB0DB6A45
:1027500006460D46904698471348FFF79EFBF0B19A
:1027600002A8FFF731FB284602F015FE002481B2D3
:102770003B462846009403AAFEF7DAFE90B9336878
:1027800009ADD3F82090094B03AC08930FCC0FC5CB
:10279000236842462B7030463B4608A9C8470FB015
:1027A000BDE8F0832046FAE79022002008570A0887
:1027B000024B1A68024B1A60704700BF24100020B9
:1027C000B822002010B40468246BA44610BC6047F3
:1027D00003689B6C1847808E7047028FC08E101A5A
:1027E000704707B503688DF807100122DB680DF10B
:1027F0000701984703B05DF804FB10B50368044671
:102800001B69984728B1E38EE26B591CE186D05CC6
:1028100010BD4FF0FF30FBE710B5036804461B699D
:10282000984718B1E38EE26BD05C10BD4FF0FF30DB
:10283000FBE770470346084610B4D98EDC6B1A8F4D
:102840000368521ADB68214410BC1847A0F110003D
:10285000FFF7F0BF2DE9F3411646036888465B6A2F
:10286000044698473046FFF76DFB0368DB689847DE
:10287000054688B102214346112208460096FEF71C
:1028800087FD6061FEF77CFD074648B10023A4F890
:102890001880E38623876664284602B0BDE8F0818D
:1028A000236820465B6A98473D46F5E738B50446FD
:1028B0004569FEF795FD854202D06069FEF788FD07
:1028C000FEF78EFD00236061E386238738BD10B5D7
:1028D000022486B0ADF80840BDF8204064BAADF8D7
:1028E0000A40DC798DF80C409C798DF80D405C79BC
:1028F0001B798DF80E408DF80F301023019302AB39
:10290000009340690023FEF75BFD06B010BD70B573
:102910000546C06BEE8E68B12B6C9C1B944228BFA1
:1029200014463044224602F0B3FCEB8E204623448A
:10293000EB8670BD0446F1E770B5036804461B6979
:102940000E461546984790B1236820461B69984764
:102950008542A8BF0546E38EE16B2A4619443046FE
:1029600002F096FCE38E2B44E386284670BD4FF0C0
:10297000FF35FAE72DE9F041044690B0406C1F4660
:102980000D461646FFF7DEFA0368DB68984728B95C
:102990004FF0FF36304610B0BDE8F081D4F8148017
:1029A000FEF71EFD8045F3D0002DF1D010230593D6
:1029B000002305AACDE90273019206AA00922946D6
:1029C00032466069FEF71CFD061EE3DBBDF81A30D7
:1029D00007A95BBAA3860AA820340BADFFF736FA25
:1029E0000FCD0FC42B682370D4E700002DE9F04110
:1029F000064694B0406C0D461746FFF7A3FA0368ED
:102A0000DB689847F0B1284602F0C5FC002481B28B
:102A1000736C2846009403AAFEF78AFDA8B903A99F
:102A200008A8FFF7DFF933680FACD3F83880084BFC
:102A300009AD0E930FCD0FC42B683A463046237074
:102A40000EA9C04714B0BDE8F0812046FAE700BFE8
:102A500008570A08F0B58C4696460646026889B0C3
:102A6000976A094A03AD1C1D02920FCC0FC523685B
:102A700072462B70BDF8383061460093304602AB89
:102A8000B84709B0F0BD00BF08570A0870B5044642
:102A90000646054B01F1200544F8043B0FCD0FC459
:102AA0002B683046237070BD08570A08F0B50446FD
:102AB000036889B09F6A0C4B03AD00F120060293B6
:102AC0000FCE0FC53368E28E2B70A38EE16B00939F
:102AD000204602ABB847054623682046DB69984785
:102AE000284609B0F0BD00BF08570A0838B50025D0
:102AF0004FF47A73C0E901530C4B044603F108020A
:102B00006C3302600361FEF76BFC606104F11C0032
:102B1000FFF75AF94FF400732046C4E91035E586F3
:102B20002587E56384F8485038BD00BF0C580A0873
:102B300010B590F84830044623B1C06B10B10121A4
:102B4000FDF7AFFA0023E36384F848302364E3869B
:102B5000238710BD70B5044616460D46FFF7E8FF03
:102B60000023E66323642EB12564206C003818BF6F
:102B7000012070BD002DF8D02846FDF790FA012302
:102B8000E06384F848300028EFD0EDE7F8B5174649
:102B9000C26B05460C461AB9016C09B1FFF7DAFFA2
:102BA00005F1200604340FCC0FC6236833700023D0
:102BB000286CAF86EB862B87F8BD70B5C26B0446D8
:102BC0000D461AB9016C09B1FFF7C4FF0023E16B90
:102BD000E386238749B1226C3AB1236820461E6BF5
:102BE0002B46B0470028C8BF208723682046BDE891
:102BF00070401B691847000010B50446064B03F1EE
:102C000008026C3302600361FFF750FE2046FFF7B5
:102C10008FFF204610BD00BF0C580A0810B50446AF
:102C2000FFF7EAFF20464C21FDF73BFA204610BD96
:102C300070474174704708B5007CFEF729FC20EA14
:102C4000E07008BD08B5007CFEF7FAFB20EAE070F2
:102C500008BD08B5007CFEF703FC40EAE07008BD43
:102C600008B5007CFEF7F4FB40EAE07008BD007C8C
:102C7000FEF7FEBB70B5467C04460D462EB12946D4
:102C8000207CBDE87040FEF7D3BB007CFEF700FC63
:102C90000028F4DC304670BD10B504461421FDF761
:102CA00000FA204610BD000010B54FF47A730446B8
:102CB000084611460022C4E90123044B2074236016
:102CC00001236374FEF7ECFB204610BD84580A080C
:102CD000417470477047704708B50021007CFEF7CB
:102CE00007FC40EAE07008BD08B50121007CFEF752
:102CF000FFFB40EAE07008BD08B5007CFEF7F0FB82
:102D000020EAE07008BD08B5007CFEF7E1FB20EA90
:102D1000E07008BD38B50446007C0D46FEF7E0FBC8
:102D2000002801DC607C28B12946207CFEF7E8FB06
:102D300020EAE07038BD007CFEF7EABB10B504461F
:102D40001421FDF7AEF9204610BD704710B54FF4C1
:102D50007A73044608460021C4E90113044B207429
:102D60002360012311466374FEF7A2FB204610BDC9
:102D7000B4580A080022007CFEF7A2BB10B5044636
:102D80001422002102F0ACFA054B20466360054B8B
:102D9000E36040F2011323818123238210BD00BF31
:102DA000EC220020ED23002030B50E4D87B001A8A5
:102DB000FFF7E4FF2978BFF35B8F11F001040ED118
:102DC0002846FDF770F950B1214601AA0648FFF7E1
:102DD000BDFF2846FDF76CF9044802F04FFA02489F
:102DE00007B030BDBC220020C4220020D52C0A0828
:102DF00010B504461422002102F072FA054B204659
:102E00006360054BE36040F2011323818123238239
:102E100010BD00BF6E2400206F25002010B50E4CA1
:102E200086B001A8FFF7E4FF2378BFF35B8FDB07D1
:102E30000ED42046FDF737F950B1012101AA074809
:102E4000FFF784FF2046FDF733F9054802F016FA34
:102E5000024806B010BD00BFC0220020D8220020CA
:102E60004B2D0A08002240681146FEF7DDBBF0B585
:102E7000154689B011220E460446002103A802F02F
:102E80002FFA284602F087FA002781B27368284695
:102E9000009703AAFEF74CFB30B139462046FEF7F7
:102EA000B3FF204609B0F0BD204603A9FEF79AFF04
:102EB000F7E7002240681146FEF7D6BB00224068C3
:102EC0001146FEF7E1BB00224068FEF7D5BB0022A9
:102ED000406881F00101FEF7BFBB002340681A463D
:102EE0001946FEF7B1BB002340681A461946FEF7A3
:102EF000A3BB002240681146FEF786BB00220221D8
:102F00004068FEF789BB002340681A46FEF774BB91
:102F10000422024B5A60024A1A607047F0250020D2
:102F2000E4580A08014B1860704700BF28100020C1
:102F300008B5134B43B1FFF737FF03681B69984788
:102F4000002801DDAFF300800E4B43B100F0B6F96D
:102F500003681B699847002801DDAFF300800A4B26
:102F60000BB1AFF30080094B43B1FFF757FF036884
:102F70001B699847002801DDAFF3008008BD00BF42
:102F80000000000000000000000000000000000041
:102F900008B5FFF7CDFFFEF769F9014B186008BDD2
:102FA000102600200548064A08B5121A054902F005
:102FB0006FF9054B054A1A6008BD00BF004002408A
:102FC00004400240A05D0A08004002401E1C279AEF
:102FD000002307B51A466FF077010093FEF7DAFA7F
:102FE00003B05DF804FB000007B543880A2B08D046
:102FF000502B0BD1094B1B684BB103B05DF804EBB0
:103000001847FFF7E5FF03B05DF804FB00231A46FD
:103010006FF077010093FEF7BDFAF4E7FC2500207E
:10302000002110B51148FEF77FFB114B1A68114BB8
:103030009A420CBF012200220F4B1A7001D0FFF7F9
:10304000B1FFFEF70BF9044602F052F90B4B13B136
:103050002046AFF3008000210848FEF7C5FABDE81E
:10306000104000210648FEF78BBA00BF252F0A0842
:10307000004002401E1C279AF82500200000000096
:10308000E92F0A08024B986808B1FEF7D7B87047D5
:1030900004260020172870B5044601D9002070BD11
:1030A000A0F10D03022B0BD9012824D800F0B8F8A9
:1030B0000021007CFEF74AF980F00100C0B2EEE783
:1030C000124E3178BFF35B8F11F001050DD1304600
:1030D000FCF7E9FF48B129460D48FFF775F830467F
:1030E000FCF7E6FF0B4802F0C9F8094B1878FEF729
:1030F00097F90028D2D1123C012C05D800F0DEF857
:10310000007CFEF7BDF9D7E70120C8E700260020C4
:103110000426002085300A08172838B504460D46D5
:103120000AD8FF2908D0FFF7B5FF28B12946204665
:10313000BDE83840FEF7B2B838BD38B504460D4694
:10314000FEF7B4F8FF2810D0062804D84D2323FA40
:1031500000F0C30709D42046FFF79CFF28B1294699
:103160002046BDE83840FEF7A9B838BD38B504465A
:103170000D46FFF78FFFF0B104212046FEF786F8D9
:10318000042805D12046A9B2BDE83840FEF79EB814
:1031900002212046FEF77AF802280CD12046FEF7DD
:1031A00085F8012801D0042805D129462046BDE82C
:1031B0003840FEF793B838BD70B504460D46164644
:1031C000FFF768FF98B102212046FEF75FF802285A
:1031D0000DD12046FEF76AF8012801D0042806D157
:1031E000324629462046BDE87040FEF77FB870BDE4
:1031F0007047000070B514232025084E0446036074
:10320000314685600561284600F07CF831466060F3
:10321000284600F077F8E060204670BD18590A088B
:1032200030B50E4D87B02978BFF35B8F11F00104E4
:1032300011D12846FCF737FF68B101A8FFF7DAFF84
:10324000214601AA0648FEF78BFD2846FCF730FF11
:10325000044802F013F8024807B030BD14260020DD
:1032600018260020F1310A08002307B51A4619462E
:1032700000930348FEF7DEFD03B05DF804FB00BFDA
:103280002C2600207047000070B5142504462A46FD
:10329000002102F025F825808025074E284631467A
:1032A0002581258200F02EF831466060284600F026
:1032B00029F8E060204670BD18590A0830B50E4D57
:1032C00087B02978BFF35B8F11F0010411D1284634
:1032D000FCF7E9FE68B101A8FFF7D6FF214601AA75
:1032E0000648FFF7E1FC2846FCF7E2FE044801F03F
:1032F000C5FF024807B030BD442600204826002004
:1033000085320A08FCF7CBBE08B5FEF7EDF908B523
:10331000FEF7EAF908B5FEF7E7F90000014900F009
:10332000FBB800BF34590A087FB500241023CDE94B
:103330000234036815469E69CDE900446B46126865
:10334000B0479DF8043003F00603062B09BF0120A7
:103350002046009B2B6004B070BD0098904214BFC3
:10336000012006207047000010B50446024B0360A0
:1033700000F0CFF8204610BD74590A0810B5044675
:10338000FFF7F2FF20460821FCF78BFE204610BD18
:103390002DE9F041DDF818801F46DDE90834984535
:1033A0000646154607D1079900F0B6F818B16571C1
:1033B0000020BDE8F0813946304600F0ADF8002825
:1033C000F6D00123C4F800802571A371F0E738B569
:1033D00015461C4600F0A0F820B10823E360062340
:1033E0002560237138BD2DE9F04105460C4616468F
:1033F0001F4600F091F848B9032F07D823683246DA
:1034000029462046BDE8F0415B691847BDE8F081D8
:1034100010B50446024B0360FFF7A6FF204610BD1F
:10342000D4590A0810B50446FFF7F2FF20460C21D4
:10343000FCF737FE204610BD2DE9F041DDF818807D
:10344000064690450F4615461C460BD0B0682A46E6
:103450000368CDF818801E6A39462346B446BDE895
:10346000F0416047194600F057F80028EED00620DA
:10347000BDE8F0812DE9F14F0D46DDE90A4BDDE9AC
:103480000CA6194681461746984600F045F890B1BB
:10349000002D3460377109DB2C44A2450CBF062493
:1034A0000124B471002001B0BDE8F08F0235F9D1DC
:1034B0000123B371F6E7544506D15946484600F05A
:1034C0002BF808B17771EDE7D9F808003A460368A0
:1034D000CDE90CA6CDE90A4BDC6929464346A44652
:1034E00001B0BDE8F04F60472DE9F04107460C46BA
:1034F00015461E46FFF76BFF48B9B8682A460368B1
:1035000021469F693346BC46BDE8F0416047BDE8AF
:10351000F081704700207047814208B50ED04068A6
:1035200003782A2B0CD049680B782A2B08BF01316D
:1035300001F00CFFB0FA80F0400908BD0120FCE763
:103540000020FAE710B5264C21F00043A34286B0D4
:1035500021DD244A934209DD02460B4601F0DEF9E3
:1035600002460B461046194606B010BD02AA00F0EE
:1035700093F800F00300012814D0022826D0E0B10F
:10358000DDE90423DDE902010124009401F000F8E3
:1035900002460B46E6E70022002306B0BDE81040D5
:1035A00000F0A6BADDE904230090DDE9020100F095
:1035B000EFFF024601F10043D4E7DDE90423DDE932
:1035C000020100F095FA02460B46CBE7DDE9042341
:1035D000DDE9020100F08CFA024601F10043C1E787
:1035E000FB21E93FFFFFEF7F10B5294C21F000439D
:1035F000A34286B020DD274A934209DD02460B46EE
:1036000001F08CF902460B461046194606B010BD73
:1036100002AA00F041F800F00300012818D00228A7
:103620002AD0F0B1DDE90423DDE9020100F060FAFF
:10363000024601F10043E7E7002400220023009442
:1036400000F0A6FF02460B461046194606B010BD14
:10365000DDE90423DDE9020100F04AFA02460B46E7
:10366000D2E70124DDE90423DDE90201009400F042
:103670008FFF02460B46C7E70124DDE90423DDE99D
:103680000201009400F084FF024601F10043BBE711
:10369000FB21E93FFFFFEF7F2DE9F04FDFF838C254
:1036A00021F000456545064614468FB040F38580FD
:1036B0008A4A0F46954226DC7DA3D3E900230029E0
:1036C00040F3C08101F02AF9854B80469D4289462E
:1036D00000F08A8078A3D3E9002301F01FF90246A5
:1036E0000B464046C4E90023494601F017F972A38E
:1036F000D3E9002301F012F90126C4E902013046A2
:103700000FB0BDE8F08F774A954240F38D80764A3E
:1037100095425FDC4FEA2558A8F21648A5EB085100
:103720008B4601F063FD01F047FA02460B46304636
:103730005946CDE9082301F0F1F800226B4B01F066
:10374000A5FA8B46824601F051FD054601F034FA98
:1037500002460B4650465946CDE90A2301F0DEF8F1
:103760000022624B01F092FA02460B46CDE90C238F
:103770000022002301F0F2FC002800F06181002DFE
:103780000CBF01230223022559494246019108A892
:103790002146009500F0D4FA002F0646AFDAD4E9AE
:1037A000000505F10041C4E90001E168A26801F1EA
:1037B0000043C4E902237642A1E700264FF0000847
:1037C0004FF00009C2E900013046C2E902890FB09A
:1037D000BDE8F08F02460B4601F0A0F80026C4E9D0
:1037E0000201C4E900018AE735A3D3E9002301F00F
:1037F00095F835A3D3E900238046894601F08EF879
:1038000002460B464046C4E90023494601F086F8CB
:103810002DA3D3E9002301F081F80126C4E90201B8
:1038200030460FB0BDE8F08F00F074FF28A3D3E955
:1038300000238046894601F029FA00222D4B01F031
:103840006FF801F0D3FC064601F0B6F918A3D3E9EE
:10385000002382468B46CDE904AB01F017FA0246FD
:103860000B464046494601F059F813A3D3E900231B
:10387000CDE902015046594601F008FA1F2E804654
:1038800089463BDC1C4B721E53F82230AB4235D0CC
:1038900002460B46DDE9020101F040F802460B4604
:1038A00082468B46C4E90023AEE000BFAFF3008040
:1038B00000004054FB21F93F3163621A61B4D03DEE
:1038C0000000601A61B4D03D7370032E8A19A33BC7
:1038D00083C8C96D305FE43FFB21E93F7BD90240DB
:1038E000FB21F93FFB213941FFFFEF7F00007041D1
:1038F000905A0A080000E03F105A0A082B15079357
:103900004246DDE902014B4601F008F8C1F30A53D3
:10391000C3EB1555102D8B46824671DD68A3D3E9A4
:103920000023DDE9040101F0B1F9DDE902AB8046D5
:10393000894642464B465046594600F0EFFF024644
:103940000B465046594692469B4600F0E7FF4246DA
:103950004B4600F0E3FF5CA3D3E900238046894691
:10396000DDE9040101F092F942464B4600F0D6FF32
:10397000804689465046594642464B46CDE902AB01
:1039800000F0CCFF079AC1F30A53D31A312B8B46B0
:10399000824635DD4EA3D3E90023DDE9040101F0C1
:1039A00075F9DDE902AB8046894642464B465046F2
:1039B000594600F0B3FF02460B4650465946924620
:1039C0009B46CDE902AB00F0A9FF42464B4600F012
:1039D000A5FF41A3D3E9002380468946DDE9040120
:1039E00001F054F942464B4600F098FF8046894664
:1039F0005046594642464B4600F090FF8B46824661
:103A000052465B46C4E90023DDE9020152465B46AB
:103A100000F084FF42464B4600F080FF02460B4612
:103A2000002FC4E90223BFF66AAE0BF1004301F197
:103A30000041A0606360E1607642C4F800A05EE6E9
:103A40000323A0E600F06CFF274B80469D42894689
:103A500016D023A3D3E9002300F062FF02460B46F1
:103A60004046C4E90023494600F058FF1CA3D3E9AF
:103A7000002300F055FF4FF0FF36C4E902013EE697
:103A80000FA3D3E9002300F04BFF0FA3D3E90023DA
:103A90008046894600F044FF02460B464046C4E992
:103AA0000023494600F03AFF07A3D3E9002300F0C2
:103AB00037FF4FF0FF36C4E9020120E6AFF3008084
:103AC0000000601A61B4D03D7370032E8A19A33BC5
:103AD0000000002E8A19A33BC14920259A837B3917
:103AE0003163621A61B4D03DFB21F93F0000000050
:103AF0002DE9F04F21F00046B6F1795F92469B46E2
:103B00000C46054685B06DDA01F070FB002800F028
:103B1000EB802A4623462846214601F0B7F876A3D3
:103B2000D3E900238046894601F0B0F874A3D3E9B5
:103B3000002300F0F5FE42464B4601F0A7F872A3C1
:103B4000D3E9002300F0EAFE42464B4601F09EF81E
:103B50006FA3D3E9002300F0E3FE42464B4601F099
:103B600095F86DA3D3E9002300F0D8FE42464B46FA
:103B700001F08CF86AA3D3E9002300F0D1FE42469D
:103B80004B4601F083F8CDE900010022404649464A
:103B9000654B01F07BF8DDE9002306460F46404601
:103BA000494601F073F8A846A14652465B460446D2
:103BB0000D464046494601F069F802460B4620464C
:103BC000294600F0ABFE02460B463046394600F06F
:103BD000A5FE02460B460020544900F09FFE05B0AA
:103BE000BDE8F08F02460B4601F050F842A3D3E93E
:103BF00000238046894601F049F841A3D3E9002318
:103C000000F08EFE42464B4601F040F83EA3D3E959
:103C1000002300F083FE42464B4601F037F83CA3F8
:103C2000D3E9002300F07CFE42464B4601F02EF81B
:103C300039A3D3E9002300F071FE42464B4601F060
:103C400025F837A3D3E9002300F06AFE4B4642462D
:103C500001F01CF8364BCDE900019E4295DD354B55
:103C600000229E423ADCA6F5001300202F4916469A
:103C70001F4600F053FECDE90201002240464946AE
:103C8000294B01F003F832463B4600F047FEDDE9E0
:103C9000002306460F464046494600F0F7FFA84677
:103CA000A14652465B4604460D464046494600F052
:103CB000EDFF02460B462046294600F02FFE024645
:103CC0000B463046394600F029FE02460B46DDE938
:103CD000020100F023FE05B0BDE8F08F164B002670
:103CE000CDE90223154FC8E70020104905B0BDE813
:103CF000F08F00BFAFF30080D43888BEE9FAA8BDCA
:103D0000C4B1B4BD9EEE213EAD529C804F7E923E2A
:103D10009015CB19A001FA3E7751C1166CC1563FE0
:103D20004C5555555555A53F0000E03F0000F03F6C
:103D30003233D33F0000E93F0000E73F0000D23FAD
:103D40002DE9F04FADF5197DB84CA29D089354F8BC
:103D50002540013B12F1140F074605940B91039384
:103D6000C0F24283B249D31E81FB0301DB17C3EBD0
:103D7000A10307930133A3EB8303DB00D31806935E
:103D8000079A039BD61A059A12EB03091BD409F173
:103D9000010900240025DDF88CA2B1440DF1800852
:103DA00008E05AF8260000F007FF01364E45E8E823
:103DB000020108D0002EF4DA2046294601364E458D
:103DC000E8E80201F6D1059B002BC0F2BC83089BFA
:103DD00020AA02EBC30ADA000292059AA7F10801B1
:103DE0001A44DDF80C9004910DF5E07B019201EB93
:103DF000C308039B002BC0F2AE8157460024002568
:103E0000049E77E90223F6E9020100F03FFF024633
:103E10000B462046294600F083FD464504460D46E4
:103E2000EFD1019B09F101099945EBE802450AF13F
:103E3000080ADED1049BDDF808B00BAA9B44059B61
:103E400002EB83020A920CAA019302EB8303083B64
:103E50000993019A98AB03EBC203002A53E9284562
:103E600029DD0DF5E07A0DF130090AEBC2080022D8
:103E7000704B2046294600F009FF01F0B7F900F029
:103E80009BFE00226C4B06460F4600F0FFFE0246EA
:103E90000B462046294600F041FD01F0A7F978E9DC
:103EA000022349F8040B3946304600F039FDD0456D
:103EB00004460D46DBD1DDF81890204629464A46D7
:103EC00000F0AAFC00224FF07F5304460D4600F09C
:103ED000DDFE00F025FC0022584B00F0D7FE024624
:103EE0000B462046294600F019FD0D46044601F018
:103EF0007DF9804600F060FE0B46024629462046CA
:103F000000F00CFD4B46002B06460F4640F3988010
:103F1000019A0CA9013A51F82250C9F1180345FA47
:103F200003F101FA03F3ED1A0CAB43F82250C9F187
:103F300017031D41002D884400F38C8000220023CC
:103F40003046394601F00AF9002800F05482019BFE
:103F5000059A03F1FF3A524510DC002203F1804339
:103F6000013B0CA90A9801EB830353F8041983421F
:103F700042EA0102F9D1002A40F0F080059B0CAA28
:103F8000013B52F82330002B40F0E0800123099AD6
:103F900052F8041901330029FAD0019AD318029378
:103FA000531C9946DDF80480089A9044079A02EB66
:103FB000030A0AF1804AA39A0AF1FF3A02EB8A0A3D
:103FC00020AA02EBC80870AA02EBC30301935AF8B7
:103FD000040F00F0F1FD039B4746002B08F1080891
:103FE00048E902011FDB00240025049E083F01E090
:103FF00077E80201F6E9022300F048FE02460B468C
:104000002046294600F08CFC5E4504460D46EFD163
:10401000019B09F10109E3E802450193029B9945DF
:10402000D5DD019315E700240025F1E7D85B0A08E8
:10403000ABAAAA2A0000703E000070410000204098
:104040006BD1019B0CAA013B52F82350ED15002DBA
:104050007FF774AF019B08F10108002B40F3C98181
:104060000C9C002C51D1019B012B20D001220CABC8
:1040700053F8044F002C4BD0531C0CA9C4F180748E
:1040800041F822400199994210DD0CAC0CAA52F87B
:1040900023206FF07F4004EB830304EB810100E0F9
:1040A0001A68821A43F8042B8B42F9D10124069B2B
:1040B000002B0EDD012B00F08C81022B09D1019B1E
:1040C0000CA95A1E0CAB53F82230C3F3150341F868
:1040D0002230022D7FF432AF32463B4600207A492F
:1040E00000F01CFC06460F46002C3FF427AF069A52
:1040F0000020754900F090FB02460B4630463946D9
:1041000000F00CFC06460F4618E701230022B4E736
:10411000019901328A42ABD1C9E700226B4B01F011
:104120003BF8054600283FF409AF019B08F1010860
:10413000002BC8BF022593DC32463B460020624973
:1041400000F0ECFB022506460F46F7E6019B013323
:104150009946029326E70024002562E6069B039514
:10416000A3F118020CAB53F82A30CDF81C8006924C
:1041700073B9019B0CA903F18043023B01EB83035C
:1041800053F804190AF1FF3A183A0029F8D00692B8
:104190000020069A4C4900F03FFBBAF1000F04469C
:1041A0000D46C0F2D7814FF0000870AB03EBCA0B8D
:1041B0000CAA0AF10103069302EB8306DFF81091C3
:1041C0004FEACA0304930BF1080756F8040D00F0F8
:1041D000F3FC22462B4600F059FD4B4667E90201ED
:1041E00042462046294600F051FD0CAB9E42044653
:1041F0000D46EAD148ABCDE9013ADDF814A04FF005
:104200000009BAF1000F2CDB2DA3D3E900235F4690
:10421000002600240025DFF8BC8003E0B14510DB58
:10422000F8E80223F7E8020100F030FD02460B46F1
:104230002046294600F074FB0136B24504460D467F
:10424000ECDA019B029A03EBC9039145C3E90045EF
:10425000ABF1080B09F1010306D0BAF1000F994642
:10426000D2DA00240025ECE7A29BDDF808A0022B9F
:1042700032DC002B00F3F28018D1A29B049D1C4677
:10428000019E08353544184675E90223214600F0A1
:1042900047FBAE4203460C46F5D1039A0AB104F13E
:1042A0000044184621460B9BC3E90001079B03F01D
:1042B00007000DF5197DBDE8F08F00BFAFF300805A
:1042C00000000040FB21F93F0000F03F0000E03F0C
:1042D0000000703EA05B0A08A29B032BE6D1BAF156
:1042E000000F00F04D81019B049A13449B46D3E9D3
:1042F00000455BE902672046294632463B4600F00E
:104300000FFBA046A94604460D4622462B463046E2
:10431000394600F003FB4B46424600F001FBCBE977
:1043200000016BE90245019B5B45E2D1BAF1010F47
:1043300040F32681049B019A0DF5947B13449A4621
:10434000D3E9004502935AE90267204629463246DE
:104350003B4600F0E5FAA046A94604460D46224633
:104360002B463046394600F0D9FA42464B4600F01B
:10437000D7FACAE900016AE90245D345E3D100232F
:104380001E46029C019A083402F11005184674E991
:104390000223314600F0C4FAA54203460E46F5D189
:1043A000039A002A40F0A480184631460B9C019BDA
:1043B000C4E90401D3E90223C4E90223DDE9482367
:1043C000C4E90023079B03F007000DF5197DBDE844
:1043D000F08F019B0CA95A1E0CAB53F82230C3F38B
:1043E000160341F8223074E600216FF0170307919D
:1043F000C4E400245BE6069C3046394662420395DD
:10440000CDF81C8000F008FA00225F4B06460F46EC
:1044100000F0C2FE002861D000225C4B1834304608
:104420003946069400F032FC00F0E0FE044600F04D
:10443000C3FB0022544B00F029FC0B4602463946D0
:10444000304600F06BFA00F0D1FE019D0CAB05F197
:10445000010A43F8250043F82A4099E6002634462D
:10446000019F069B07EBC305304675E902232146F1
:1044700000F056FAAF4206460C46F5D1039B002BDE
:1044800050D13046214623460B9C3246C4E90001F8
:10449000DDE9480100F042FABAF1000F03460E468A
:1044A00010DD012448AD1846F5E90223314600F03D
:1044B00037FA0134A24503460E46F4DA039A0AB1EC
:1044C00006F10046184631460B9BC3E90201079BE3
:1044D00003F007000DF5197DBDE8F08F3046394631
:1044E00000F084FE019B0CAA9A4642F823004FE696
:1044F0000B9D019C06F100466E6126462068A2686D
:1045000064682B6104F10041F468C5E9000104F11D
:104510000043C5E90223079B03F007000DF5197D51
:10452000BDE8F08F0B9804F1004106603246234647
:104530004160DDE9480100F0F1F9BAF1000F0346EE
:104540000E46AEDCBCE7A7F108030493089BDB0032
:1045500002936FE4A29B022B06DC002B0DDC7FF4A0
:10456000A5AEA29B1C4698E6A29B032B7FF49EAEB1
:10457000002348AA1E46019212E7002634467DE732
:1045800000231E460CE700BF000070410000703E93
:104590002DE9F04F85B0CDE9022321F00043B3F1BE
:1045A000795F8246019104DA00F020FE002800F0D5
:1045B0008E80019B52461946504600F067FB044628
:1045C0000D46019B2246194650462B4600F05EFBE5
:1045D00043A3D3E9002306460F462046294600F0B0
:1045E00055FB41A3D3E9002300F098F922462B465E
:1045F00000F04CFB3EA3D3E9002300F091F92246E2
:104600002B4600F043FB3CA3D3E9002300F086F9DE
:1046100022462B4600F03AFB39A3D3E9002300F0F1
:104620007FF90E9B80468946BBB3DDE9020100227B
:10463000374B00F02BFB42464B46804689463046BE
:10464000394600F023FB02460B464046494600F03F
:1046500065F922462B4600F019FBDDE9022300F044
:104660005DF929A3D3E9002304460D4630463946B7
:1046700000F00CFB02460B462046294600F050F99C
:1046800002460B465046019900F048F982468B4697
:104690005046594605B0BDE8F08F02460B4620460D
:1046A000294600F0F3FA18A3D3E9002300F036F905
:1046B00032463B4600F0EAFA5246019B00F030F9E0
:1046C00082468B465046594605B0BDE8F08FDDF86E
:1046D00004B05046594605B0BDE8F08FAFF30080F6
:1046E0007CD5CF5A3AD9E53DEB9C2B8AE6E55A3E7C
:1046F0007DFEB157E31DC73ED561C119A0012A3F18
:10470000A6F810111111813F495555555555C53F12
:104710000000E03F21F00041704700BF00000000B2
:10472000C1F30A52F8B5A2F2FF35132D0B468446A9
:104730000C46064630DC002D1EDB354F2F4101EACA
:104740000702024315D030A3D3E9002300F0E8F8B4
:104750000022002300F02AFD48B1002C04DA4FF4B7
:10476000801343FA05F52C44002624EA0704234667
:10477000B44660461946F8BD23A3D3E9002300F0F0
:10478000CFF80022002300F011FD0028EFD0002C0C
:1047900024DB00263446EAE7332D08DDB5F5806FCB
:1047A000E7D1024600F0BCF884460B46E1E74FF043
:1047B000FF37A2F21342D7400742DAD012A3D3E95F
:1047C000002300F0ADF80022002300F0EFFC0028E9
:1047D000CDD0002C0BDB26EA0706C8E724F0004307
:1047E0000C4A1E43002E18BF14460026BFE7142DA6
:1047F00008D00123C5F1340503FA05F5AE1928BF29
:10480000E418E8E70134E6E79C7500883CE4377E6D
:10481000FFFF0F000000F0BFC1F30A5370B58C46D4
:1048200004460D4616467BBB034621F0004C5CEA6D
:10483000030328D0324B002200F028FA314B044603
:104840009E420D461ADB8C46C1F30A53363B40F2BA
:10485000FE723344934220DC002B3EDC13F1350F13
:104860002CDA4CF250339E4217DC05F0004343F043
:10487000D27141F4B731244841F01F011CA3D3E9A0
:10488000002300F003FA70BD40F2FF7E7345DED1D5
:1048900002460B4600F044F870BD05F0004343F0BB
:1048A000FC4141F45F1141F4105113A3D3E90023FB
:1048B000164841F03C0100F0E9F970BD2CF0FF4CC6
:1048C00003F136012CF4E00C4CEA0155002220469D
:1048D00029460F4B00F0DAF970BD2CF0FF4C2CF498
:1048E000E00C20464CEA035170BD00BFAFF30080DE
:1048F00059F3F8C21F6EA5019C7500883CE4377E11
:1049000000005043B03CFFFF59F3F8C29C7500888B
:104910000000903C81F0004102E000BF83F00043C2
:1049200030B54FEA41044FEA430594EA050F08BF4A
:1049300090EA020F1FBF54EA000C55EA020C7FEA0E
:10494000645C7FEA655C00F0E2804FEA5454D4EB8B
:104950005555B8BF6D420CDD2C4480EA020281EA55
:10496000030382EA000083EA010180EA020281EA8D
:104970000303362D88BF30BD11F0004F4FEA0131DF
:104980004FF4801C4CEA113102D0404261EB4101EE
:1049900013F0004F4FEA03334CEA133302D0524274
:1049A00063EB430394EA050F00F0A780A4F1010430
:1049B000D5F1200E0DDB02FA0EFC22FA05F280186A
:1049C00041F1000103FA0EF2801843FA05F3594150
:1049D0000EE0A5F120050EF1200E012A03FA0EFCCF
:1049E00028BF4CF0020C43FA05F3C01851EBE371F9
:1049F00001F0004507D54FF0000EDCF1000C7EEB16
:104A000000006EEB0101B1F5801F1BD3B1F5001F53
:104A10000CD349085FEA30004FEA3C0C04F1010472
:104A20004FEA445212F5800F80F09A80BCF1004F9B
:104A300008BF5FEA500C50F1000041EB045141EA1D
:104A4000050130BD5FEA4C0C404141EB0101013CE6
:104A500028BFB1F5801FE9D291F0000F04BF0146D5
:104A60000020B1FA81F308BF2033A3F10B03B3F1A7
:104A700020020CDA0C3208DD02F1140CC2F10C0237
:104A800001FA0CF021FA02F10CE002F11402D8BF95
:104A9000C2F1200C01FA02F120FA0CFCDCBF41EA61
:104AA0000C019040E41AA2BF01EB0451294330BD30
:104AB0006FEA04041F3C1CDA0C340EDC04F114040D
:104AC000C4F1200220FA04F001FA02F340EA0300E4
:104AD00021FA04F345EA030130BDC4F10C04C4F12A
:104AE000200220FA02F001FA04F340EA030029460A
:104AF00030BD21FA04F0294630BD94F0000F83F454
:104B0000801306BF81F480110134013D4EE77FEA36
:104B1000645C18BF7FEA655C29D094EA050F08BF82
:104B200090EA020F05D054EA000C04BF1946104663
:104B300030BD91EA030F1EBF0021002030BD5FEAA7
:104B4000545C05D14000494128BF41F0004130BDCF
:104B500014F580043CBF01F5801130BD01F0004523
:104B600045F0FE4141F470014FF0000030BD7FEA96
:104B7000645C1ABF194610467FEA655C1CBF0B4691
:104B8000024650EA013406BF52EA033591EA030FA8
:104B900041F4002130BD00BF90F0000F04BF0021A0
:104BA000704730B54FF4806404F132044FF00005D3
:104BB0004FF0000150E700BF90F0000F04BF00214C
:104BC000704730B54FF4806404F1320410F00045B2
:104BD00048BF40424FF000013EE700BF42004FEAAD
:104BE000E2014FEA31014FEA02701FBF12F07F432A
:104BF00093F07F4F81F06051704732F07F4208BFE1
:104C0000704793F07F4F04BF41F40021704730B5E7
:104C10004FF4607401F0004521F000411CE700BF33
:104C200050EA010208BF704730B54FF000050AE0B6
:104C300050EA010208BF704730B511F0004502D5B7
:104C4000404261EB41014FF4806404F132045FEAB9
:104C5000915C3FF4D8AE4FF003025FEADC0C18BF62
:104C600003325FEADC0C18BF033202EBDC02C2F154
:104C7000200300FA03FC20FA02F001FA03FE40EAE6
:104C80000E0021FA02F11444BDE600BF70B54FF0EA
:104C9000FF0C4CF4E06C1CEA11541DBF1CEA1355C8
:104CA00094EA0C0F95EA0C0F00F0DEF82C4481EA30
:104CB000030621EA4C5123EA4C5350EA013518BF50
:104CC00052EA033541F4801143F4801338D0A0FB3D
:104CD00002CE4FF00005E1FB02E506F00042E0FBEA
:104CE00003E54FF00006E1FB03569CF0000F18BFF0
:104CF0004EF0010EA4F1FF04B6F5007F64F5407498
:104D000004D25FEA4E0E6D4146EB060642EAC6212A
:104D100041EA55514FEAC52040EA5E504FEACE2E97
:104D2000B4F1FD0C88BFBCF5E06F1ED8BEF1004F9A
:104D300008BF5FEA500E50F1000041EB045170BD16
:104D400006F0004646EA010140EA020081EA03015A
:104D5000B4EB5C04C2BFD4EB0C0541EA045170BD56
:104D600041F480114FF0000E013C00F3AB8014F1D0
:104D7000360FDEBF002001F0004170BDC4F1000419
:104D8000203C35DA0C341BDC04F11404C4F120059A
:104D900000FA05F320FA04F001FA05F240EA0200F5
:104DA00001F0004221F0004110EBD37021FA04F62B
:104DB00042EB06015EEA430E08BF20EAD37070BDE5
:104DC000C4F10C04C4F1200500FA04F320FA05F044
:104DD00001FA04F240EA020001F0004110EBD37046
:104DE00041F100015EEA430E08BF20EAD37070BDB6
:104DF000C4F1200500FA05F24EEA020E20FA04F38F
:104E000001FA05F243EA020321FA04F001F000413D
:104E100021FA04F220EA020000EBD3705EEA430EAE
:104E200008BF20EAD37070BD94F0000F0FD101F0DD
:104E30000046400041EB010111F4801F08BF013C16
:104E4000F7D041EA060195F0000F18BF704703F054
:104E50000046520043EB030313F4801F08BF013DDB
:104E6000F7D043EA0603704794EA0C0F0CEA135597
:104E700018BF95EA0C0F0CD050EA410618BF52EA51
:104E80004306D1D181EA030101F000414FF0000057
:104E900070BD50EA410606BF1046194652EA430665
:104EA00019D094EA0C0F02D150EA013613D195EAD9
:104EB0000C0F05D152EA03361CBF104619460AD121
:104EC00081EA030101F0004141F0FE4141F470012B
:104ED0004FF0000070BD41F0FE4141F4780170BD1B
:104EE00070B54FF0FF0C4CF4E06C1CEA11541DBF80
:104EF0001CEA135594EA0C0F95EA0C0F00F0A7F882
:104F0000A4EB050481EA030E52EA03354FEA0131AE
:104F100000F088804FEA03334FF0805545EA1313C1
:104F200043EA12634FEA022245EA111545EA106589
:104F30004FEA00260EF000419D4208BF964244F120
:104F4000FD0404F5407402D25B084FEA3202B61A3F
:104F500065EB03055B084FEA32024FF480104FF413
:104F6000002CB6EB020E75EB030E22BFB61A754687
:104F700040EA0C005B084FEA3202B6EB020E75EB1A
:104F8000030E22BFB61A754640EA5C005B084FEA82
:104F90003202B6EB020E75EB030E22BFB61A75464F
:104FA00040EA9C005B084FEA3202B6EB020E75EB5A
:104FB000030E22BFB61A754640EADC0055EA060E1B
:104FC00018D04FEA051545EA16754FEA06164FEA5E
:104FD000C30343EA52734FEAC2025FEA1C1CC0D10A
:104FE00011F4801F0BD141EA00014FF000004FF097
:104FF000004CB6E711F4801F04BF01430020B4F158
:10500000FD0C88BFBCF5E06F3FF6AFAEB5EB030C0F
:1050100004BFB6EB020C5FEA500C50F1000041EB0C
:10502000045170BD0EF0004E4EEA113114EB5C04D9
:10503000C2BFD4EB0C0541EA045170BD41F48011AC
:105040004FF0000E013C90E645EA060E8DE60CEAB4
:10505000135594EA0C0F08BF95EA0C0F3FF43BAFD1
:1050600094EA0C0F0AD150EA01347FF434AF95EA88
:105070000C0F7FF425AF104619462CE795EA0C0F6C
:1050800006D152EA03353FF4FDAE1046194622E739
:1050900050EA410618BF52EA43067FF4C5AE50EA13
:1050A00041047FF40DAF52EA43057FF4EBAE12E703
:1050B0004FF0FF3C06E000BF4FF0010C02E000BFE4
:1050C0004FF0010C4DF804CD4FEA410C7FEA6C5CC7
:1050D0004FEA430C18BF7FEA6C5C1BD001B050EA6A
:1050E000410C0CBF52EA430C91EA030F02BF90EA55
:1050F000020F0020704710F1000F91EA030F58BF14
:10510000994208BF90422CBFD8176FEAE37040F075
:10511000010070474FEA410C7FEA6C5C02D150EA13
:10512000013C07D14FEA430C7FEA6C5CD6D152EACE
:10513000033CD3D05DF8040B704700BF8446104693
:1051400062468C461946634600E000BF01B5FFF792
:10515000B7FF002848BF10F1000F01BD4DF808ED62
:10516000FFF7F4FF0CBF012000205DF808FB00BF33
:105170004DF808EDFFF7EAFF34BF012000205DF88D
:1051800008FB00BF4DF808EDFFF7E0FF94BF0120DA
:1051900000205DF808FB00BF4DF808EDFFF7CEFFDB
:1051A00094BF012000205DF808FB00BF4DF808ED1A
:1051B000FFF7C4FF34BF012000205DF808FB00BFEB
:1051C0004FEA410C7FEA6C5C02D150EA013C0AD103
:1051D0004FEA430C7FEA6C5C02D152EA033C02D1F5
:1051E0004FF0000070474FF0010070474FEA410256
:1051F00012F5001215D211D56FF47873B3EB625229
:1052000012D94FEAC12343F0004343EA505311F04F
:10521000004F23FA02F018BF404270474FF00000E1
:10522000704750EA013005D111F0004008BF6FF01F
:10523000004070474FF00000704700BF4A0011D295
:1052400012F5001211D20DD56FF47873B3EB6252E0
:105250000ED44FEAC12343F0004343EA505323FAEC
:1052600002F070474FF00000704750EA013002D161
:105270004FF0FF3070474FF00000704700230146A9
:105280001A46184600F016B90A22002100F008B9A3
:105290000A44914200F1FF3300D1704710B511F874
:1052A000014B914203F8014FF9D110BD884210B56E
:1052B00001EB020402D98442234607D8431EA142CF
:1052C00008D011F8012B03F8012FF8E7014602443A
:1052D0008A4200D110BD13F8014D02F8014DF7E7E5
:1052E00003460244934200D1704703F8011BF9E7DB
:1052F00038B5104B04461D68AB6BB3B91820FCF7EA
:10530000DBF90246A86320B942210B4B0B48FCF79E
:1053100003FA0B490B4BC0E900130B4B00218360D0
:105320000B2383810120C2E904010022AB6B1C61C5
:105330005A6138BD28100020E85B0A08FF5B0A08A4
:105340000E33CDAB34126DE6ECDE050010F8012B08
:1053500011F8013B012A28BF9A42F7D0D01A7047B2
:10536000024B0146186800F003B800BF2810002067
:1053700070B5044608460D4600F00DF8461C31464F
:105380002046FCF7B9F9044618B132462946FFF722
:105390007FFF204670BD034613F8012B002AFBD186
:1053A000181A013870470000012B2DE9F04780469C
:1053B00001D0242B06D9FCF7A7F91623036000209F
:1053C000BDE8F0870D46354F284615F8014BE65DE0
:1053D00016F00806F8D12D2C2FD101262C78851C2B
:1053E000002B57D0102B09D1302C07D1287800F092
:1053F000DF00582849D110236C780235002706F1C8
:10540000004E0EF1FF3EBEFBF3F9384603FB19EAEE
:10541000A4F1300CBCF1090F14D86446A34222DD7C
:10542000002F1DDB81451BD301D1A24518DB0127CD
:1054300000FB034015F8014BEAE72B2C04BF2C7846
:10544000851CCDE7A4F1410CBCF1190F01D8373C04
:10545000E4E7A4F1610CBCF1190F04D8573CDDE777
:105460004FF0FF37E6E7002F07DA22237046C8F82F
:105470000030002AA4D0691E05E006B14042002A8F
:105480009ED0002FF7D111609AE73024002BB5D1C0
:105490000823B3E7302CA9D00A23AFE7595C0A08E8
:1054A00013460A46014602480068FFF77DBF00BF69
:1054B000281000202DE9F843DFF8AC800646D8F824
:1054C00000001F460D46914600F058F8274B1C6817
:1054D00034B9274C1C60274B13B11B68C4F88830C3
:1054E00063681F2B07DDD8F8000000F049F84FF083
:1054F000FF30BDE8F8835EB3D4F8880088B91E4B4E
:1055000023B9D8F8000000F03AF8F0E74FF48470BF
:10551000FCF7D2F80028F4D00023C0E94033C4F8E7
:10552000880001226368022E40F8239002FA03F2F9
:1055300000EB8301D0F8003143EA0203C0F80031E8
:10554000C1F8807002BFD0F804311343C0F80431B1
:105550006368D8F800005A1C0233626044F8235094
:1055600000F00EF80020C4E78C100020E826002090
:105570005C26002000000000B9160A08704770473A
:105580007047000021000A0861000A0889000A0823
:105590008D000A0800000000726573706972617402
:1055A000696F6E006672657175656E637900686F0C
:1055B0007420696E74656E7369747900636F6C64CE
:1055C00020696E74656E7369747900766563746FB3
:1055D000723A3A5F4D5F7265616C6C6F635F696EC2
:1055E000736572740066696C7465726564207361BA
:1055F0006D706C653A200043757272656E7420762A
:10560000616C7565206F6620737065637472756D6B
:105610003A20007265737069726174696F6E2072EE
:10562000617465007265737069726174696F6E2070
:10563000000000000000000000000000B1050A08A2
:1056400005060A08F1040A08000000000000000036
:10565000E90B0A08EB0B0A0863616E6E6F74206336
:105660007265617465207374643A3A766563746F29
:1056700072206C6172676572207468616E206D6162
:10568000785F73697A652829004D69736D61746369
:10569000686564206C656E6774687300657272007B
:1056A0004C656E677468206973206E6F742061208A
:1056B000706F776572206F66203200000000000076
:1056C0000000000061170A0867170A08A5170A08F2
:1056D00075170A0863170A080000000000000000A0
:1056E000091D0A08531D0A082B1D0A080B1D0A086C
:1056F000331D0A083B1D0A08431D0A084B1D0A08F2
:105700000000000000000000871D0A08851D0A082F
:10571000B91D0A0861707000000000000000000060
:105720007D1E0A08871E0A08911E0A089B1E0A0889
:10573000A51E0A08B11E0A08BD1E0A08C51E0A08D1
:10574000CD1E0A08D91E0A08E11E0A08EB1E0A0827
:10575000F51E0A086E616E00696E66006F7666005F
:105760002E00776972696E6700544350436C696517
:105770006E7420736F636B65743D257800000000C4
:10578000000000000000000071230A0899230A08A5
:105790003F270A08A7230A0875230A08000000000B
:1057A0000000000000000000000000000D110A08C9
:1057B00041110A08F9220A0813230A0841250A0898
:1057C0003B230A08CD230A086F230A0861240A082C
:1057D00045270A08FB230A08B5250A0863260A0894
:1057E0001B260A0823230A0829260A08AD230A08CB
:1057F00025592D256D2D25645425483A254D3A25EA
:1058000053257A0061736374696D650000000000C0
:1058100000000000F92B0A081D2C0A08E3270A08DB
:105820000F290A08DB270A08FB270A0819280A0893
:1058300033280A0855280A08AD280A08CF280A087C
:10584000552A0A0875290A08C5270A088D2B0A084F
:10585000ED290A08AD2A0A08BB2B0A0839290A08CB
:10586000D1270A088D2A0A08D7270A0835280A08E6
:10587000F0FFFFFF000000004D280A0800000000B4
:1058800000000000312C0A08992C0A08752C0A081F
:10589000711F0A08452C0A08612C0A08532C0A08B3
:1058A0006F2C0A08332C0A08372C0A080000000065
:1058B00000000000D72C0A083D2D0A08152D0A0803
:1058C000711F0A08072D0A08D92C0A08E92C0A08B2
:1058D000372D0A08F92C0A08D12C0A08000000000C
:1058E00000000000072F0A08FD2E0A08F32E0A0800
:1058F000652E0A08E72E0A08DB2E0A08BD1E0A08D4
:10590000C51E0A08CF2E0A08C72E0A08BD2E0A088F
:10591000B32E0A086F2E0A0800537431395F537092
:105920005F6D616B655F7368617265645F74616709
:105930000000000074590A0819590A08D4590A08C5
:1059400048590A08F8590A084E31305F5F63787881
:10595000616269763131375F5F636C6173735F7465
:105960007970655F696E666F450000000000000099
:105970003C590A0869330A087D330A0815350A08B4
:1059800015350A08E7330A0829330A08CF330A080D
:1059900091330A085B330A08D4590A08A4590A0843
:1059A0003C590A084E31305F5F63787861626976EE
:1059B0003132305F5F73695F636C6173735F7479F9
:1059C00070655F696E666F450000000000000000B2
:1059D00098590A0811340A0825340A0815350A08A6
:1059E00015350A08E7330A0829330A08E9340A0892
:1059F00075340A0839340A0874590A08005A0A0822
:105A0000537439747970655F696E666F00000000C9
:105A1000FB21F93FFB2109407CD91240FB211940B1
:105A20007A6A1F407CD92240BBFD2540FB212940DA
:105A30003A462C407A6A2F405C4731407CD932404C
:105A40009C6B3440BBFD3540DB8F3740FB21394038
:105A50001BB43A403A463C405AD83D407A6A3F40EF
:105A60004C7E40405C4741406C1042407CD94240F3
:105A70008CA243409C6B4440AC344540BBFD454048
:105A8000CBC64640DB8F4740EB584840FB2149409E
:105A900083F9A200444E6E00FC291500D15727005F
:105AA000DD34F50062DBC0003C9995004190430075
:105AB0006351FE00BBDEAB00B761C5003A6E240047
:105AC000D24D42004906E00009EA2E001C92D100A6
:105AD000EB1DFE0029B11C00E83EA700F535820051
