:02000004080AE8
:1000000000000A0860510A08000006000600050109
:080010000402810C0000000055
:04001800503C0A0846
:1000200009480A4908B5884205D0094A824202D0E7
:10003000121A03F023FD0748074A0021121A03F0A1
:1000400045FD064808BD00BF00000020C4400A0866
:100050007410002078100020F5240020F5240020E2
:1000600070B501F01BF90025054E064CA41BA40831
:10007000AC4200D170BD56F8043B98470135F7E714
:100080009C400A08C0400A0800F0D8BB08B500F040
:10009000A7FABDE8084001F0B9B800F0C1BF00F010
:1000A000BFBF00F0C5BF0078B0FA80F040097047CC
:1000B0000123037070470000C3781BB3174BDA6845
:1000C0004378D243C2F30222C2F10401C9B28B4089
:1000D000D9B20F2313418278134002780B431B01DE
:1000E00002F16042DBB202F5614282F8003303782C
:1000F0000122590903F01F0302FA03F3084A42F8E8
:1001000021307047037801215A0903F01F039940F9
:1001100002F12003024A42F82310704700ED00E08C
:1001200000E100E0436810B523F040720B6822F450
:10013000807213430A7943EA02234360CA680B6959
:1001400084681A438B681A43084B234013434A7947
:1001500043EA42038360C36A23F470020B7D013BD0
:10016000DBB242EA0353C36210BD00BFFDF7FFC01C
:1001700010B5074C074B6268134090E80600114326
:1001800082681143C2680A431343636010BD00BF15
:1001900000230140E030FCFF836811B143F001030C
:1001A00001E023F0010383607047092970B50CD981
:1001B000A1F10A04C66804EB44040725A54026EA19
:1001C0000505A3402B43C36009E0056901EB410627
:1001D0000724B44025EA0404B34023430361062AFC
:1001E0000BD8013A446B02EB82021F23934024EAAE
:1001F000030391401943416370BD0C2A0BD8073AA1
:10020000046B02EB82021F23934024EA0303914014
:100210001943016370BD0D3AC46A02EB82021F23C9
:10022000934024EA030391401943C16270BD83687F
:1002300043F0804383607047044B5A6810B142F426
:10024000005201E022F400525A607047002301403E
:100250000268134B10B51340CC680A6814434A690E
:1002600014438A691443CA6914430A6A14434A6AE4
:1002700014438A6A14434A6B14438A6B2243134320
:10028000036043690C6B23F00702CB6A23431343DB
:1002900043610B6943604B6883608B68C36010BD2A
:1002A0003F801CF0036811B143F0010301E023F02B
:1002B00001030360704700000A4B10B50A4A0B4C5B
:1002C000A04294BF184610468B004CBF4368036899
:1002D00021F0F02121F08211194214BF01200020E9
:1002E00010BD00BF00600240006402400F64024085
:1002F00010B5084A084B094CA04294BF1846104656
:1003000011F0005F21F0F02121F0821114BFC160D3
:10031000816010BD00640240006002400F64024032
:10032000044B1A6B09B1104301E022EA0000186384
:10033000704700BF00380240044B1A6C09B11043EB
:1003400001E022EA00001864704700BF0038024054
:10035000044B5A6C09B1104301E022EA00005864D2
:10036000704700BF003802401C4A038890429BB28D
:1003700012D002F5806290420ED0B0F1804F0BD0C7
:10038000A2F58032904207D002F58062904203D0FD
:1003900002F58062904203D14A8823F07003134330
:1003A0000F4A904208D002F5806290421FBF23F4AA
:1003B00040730A899BB2134303804B68C3620B8866
:1003C0000385064B984203D003F58063984201D120
:1003D0008B7A038601238382704700BF00000140AF
:1003E000001000404FF0FF3343600023038003817F
:1003F000438083727047038819B19BB243F00103B5
:1004000003E023F001031B041B0C03807047838867
:1004100023F070031B041B0C838083889BB2194359
:10042000818070472DE9F84F0D4692460024002642
:1004300000274FF00008DFF8449001F1020B35F877
:1004400014303BF81400184402F0E6FF0AEBC40332
:10045000D3E9002303F04AF842464B4603F046F83E
:1004600002460B463046394602F08AFE0234B4F5A5
:10047000806F06460F46E2D1BDE8F88F0000E03FEE
:1004800010B50446006818B1A168091AFFF709FE03
:10049000204610BD2DE9F84F6FF07043D0E9008978
:1004A0009346A9EB0802B3EBE20F07468A464FEAF0
:1004B000E20402D1204801F06CFC012C224638BF36
:1004C0000122A418A1EB080531D294B39C4228BFA5
:1004D0001C46E000FFF7E1FD0646711903D0DBE999
:1004E0000023C1E90023002D04DD2A4641463046A1
:1004F00003F0D2FAA9EB0A090835B9F1000F354427
:1005000004DD4A465146284603F0B8FA4D44B8F196
:10051000000F05D0B9684046A1EB0801FFF7C1FD07
:1005200006EBC404C7E90065BC60BDE8F88F1C4653
:10053000CFE72646D1E700BF643C0A08814210B5E8
:100540001346A1EB000405D001462246184603F0ED
:10055000A3FA0346181910BD81422DE9F041044663
:100560000E4623D0D1E9007802688368A8EB07051E
:100570009B1A9D421ED9DDB1184B9D4201D901F055
:1005800005FC2846FFF789FD0646324641463846B7
:10059000FFF7D4FF206818B1A168091AFFF781FDA1
:1005A00026602E44A66023682B446360BDE8F0817A
:1005B0002E46EAE743689B1A9D4204D841463846D6
:1005C000FFF7BCFFEFE7F9183846FFF7B7FFD4E9AC
:1005D0000002D6E90031101A1844F1E7F8FFFF7F56
:1005E0002DE9F04F7C497D4887B0FFF765FE044652
:1005F00020B179497948FFF77BFE794C79497748F2
:10060000FFF75AFE002800F0A78076497348FFF7ED
:100610006FFE754C754A21464FF40070FFF702FFDC
:1006200002460B46724DCDE90223D5E90110814205
:1006300000F0988009B1C1E900236B6808336B6052
:10064000D5E90026B61AB6F5806F40F08880694C6F
:100650002068A3681B1AB3F57E7F00F288804FF0F4
:1006600000083046CDE90288CDF81080FFF715FD6F
:1006700007463246414600F5806903F027FA2368B1
:1006800002A802936368C4E900790393A368C4F8DD
:1006900008900493FFF7F4FE55495748FFF75CFFB5
:1006A000544A534902A800F037F9D4F800800124D5
:1006B000D5F80090DFF844B1514DDFF848A1F9E9D1
:1006C00002231046F8E90267194602F00FFF32468E
:1006D0003B46CDE900013046394602F007FF0246AD
:1006E0000B46DDE9000102F04BFD06460F46012CEA
:1006F000CBE900675ED100220023C5E90067CAE9A3
:1007000000230134402CDAD13E490022D1E9000116
:100710003D4B02F0EBFE3D4C374DC4E90001002398
:10072000092221463A4800F05BFC2B686A6803F115
:10073000A004944205D018462146121B03F0ACF9E0
:1007400003466A682C49141B23449A42284818BF60
:100750006B60FFF701FF02E0002C7FF45BAF07B096
:10076000BDE8F08F284602AAFFF794FE68E76268AA
:10077000121AB2F57E7F12D8002103F0A7F9D4E94E
:100780000020821AD210D2F1800206D000EBC206FD
:100790000021D20003F09AF9304660607CE73246CF
:1007A000002100F5806703F091F96368BB4218BF30
:1007B000676071E7D5E9002303F028F90028A0D08D
:1007C0002046C5E9006702F017FE0022002302F070
:1007D0008DFECAE9000194E7100000101064024089
:1007E000B810002020000010B818002000000020E1
:1007F000981000208C10002080100020781000201D
:10080000A8100020B010002000004E400010002072
:100810007E3C0A080023064AC2E900339360054A79
:10082000C2E900339360044AC2E900339360704721
:10083000981000208C100020801000201FB501F0BF
:10084000CBF84FF4165101F0ADF84FF400630B4AAA
:100850000A21684600F0D6F968464FF4006100F0BE
:10086000DBF9002309220649064800F0B9FB684677
:1008700000F0C0F905B05DF804FB00BFB81000201F
:10088000001000207E3C0A0838B5046805467CB19B
:100890006368013B63605BB9236820469B689847A7
:1008A000A368013BA3601BB923682046DB68984717
:1008B000284638BD38B50446081E4FEAC00507D0A3
:1008C000B0F1805F01D301F061FA2846FFF7E5FB44
:1008D000C4E900002844A06038BD0000B1F1805F89
:1008E000F8B504460D4602D30A4801F052FA002634
:1008F000C0E900668660FFF7DDFF206835B100EBD8
:10090000C5073146EA0003F0E1F83846606020464A
:10091000F8BD00BF8A3C0A082DE9F04F1546D1E921
:1009200000238B469A1AD5E900135B1A9A429DB0B0
:100930000CD0A94B19A81B78A84A8DF80030A849FB
:100940003C2300F009FE1AA8FFF79EFFDBE9002315
:100950009B1A4FEAE30A002253460392012B04D963
:10096000039A5B0801320392F8E70123039A93404C
:1009700053450CD0984B19A81B789A4A8DF8003033
:1009800097493C2300F0E8FD1AA8FFF77DFF4FEAE6
:100990005A06314619AA16A8FFF7A0FF314615AA34
:1009A00019A8FFF79BFF0024A64225D0204602F09D
:1009B00023FD87A3D3E9002302F098FD804650462B
:1009C000894602F019FD02460B464046494602F0B0
:1009D000B7FE8046894601F0E3F9169BE7003B44E9
:1009E000C3E900014046494601F02CFA199B013445
:1009F0003B44C3E90001D7E70024544532D000232B
:100A000022461E460399994206D002F0010141EAAE
:100A1000460601335208F5E7B44221D2DBF8003034
:100A200003EBC40703EBC603D7E90001D3E90023B6
:100A3000C7E90023DBF8003003EBC603C3E900017C
:100A4000296801EBC40701EBC601D1E90001D7E930
:100A50000023C7E90001296801EBC601C1E90023B1
:100A60000134CAE70226564500F2A78073081093A6
:100A7000BAFBF6F3DB001293B30011930023039348
:100A8000039B534580F0958004930023109A0593AF
:100A9000039B13441393049B139A934280F0868024
:100AA000DBF80030049A0C93049BDC00119B03EBF1
:100AB000C2090C9B059A4B440D930C9B53F809807B
:100AC0000D9B40465F68169B39461344D3E90023CB
:100AD000CDE906232B684B44D3E90023CDE9082355
:100AE000059A199B1344D3E90023CDE90A23DDE9D4
:100AF000062302F0FBFCDDE90A23CDE90E01DDE966
:100B0000080102F0F3FC02460B46DDE90E0102F09B
:100B100037FBDDE90A23CDE90E01404607F100412C
:100B200002F0E4FCDDE9082307468846DDE906011A
:100B300002F0DCFC02460B463846414602F020FB40
:100B40000C9B884619190746DDE90E23D1E90001FF
:100B500002F014FB0D9B3A46C3E9000129684346A5
:100B600089442144D1E9000102F008FBC9E90001F0
:100B7000DBF8003003EB0409D9E90001DDE90E23BD
:100B800002F0FEFAC9E900012B683A461C44D4E998
:100B90000001434602F0F4FA049B129A01330493D5
:100BA000059BC4E900011344059374E7039B334498
:100BB00065E7564501D0760055E719A8FFF760FCB8
:100BC00016A8FFF75DFC1DB0BDE8F08FAFF3008005
:100BD000182D4454FB211940B8200020BB3C0A08C2
:100BE000CE3C0A08D23C0A080122014B1A70704719
:100BF000B8200020704710B504461021FFF751FAC5
:100C0000204610BD30B5034DC0E90223C0E90051B4
:100C100030BD00BFF83C0A082DE9F04306469FB0FE
:100C20000F464FF480000121FFF77AFB01214FF4BA
:100C30008070FFF78DFB01214FF40070FFF788FBF8
:100C400001210220FFF778FB0621B088002401254E
:100C500000F0AAF8382301A88DF804308DF805407B
:100C60008DF806408DF80750FFF726FA02A8FFF727
:100C7000B9FB4549ADF81040B1FBF7F1434F0139DD
:100C80003846039102A90294FFF76EFB38462021F3
:100C9000FFF7BDFB29463846FFF7ADFBB3684FF4BD
:100CA000006711933A4B4FF400521093F3684FF4DE
:100CB0000031CDE913344FF48063CDE915374FF49B
:100CC0008073CDE917230423DFF8C880CDE9191319
:100CD00040460FA9CDE91B540F9412941D94FFF7C1
:100CE000B7FA29464046FFF7DDFA0623CDE9053479
:100CF0004FF4804305A8CDE90734FFF739FA4FF0E8
:100D000000634FF080500D9707F1804707F58C374F
:100D1000A8F5A138CDE90B03A8F58878384609A9CC
:100D20000994ADF828408DF83850FFF7FBF909A970
:100D30004046FFF7F7F900F02FF84FF01C09044682
:100D400073682A4609FB03012B463846C979FFF729
:100D50002CFA70682B4609FB00442A46E17940468C
:100D6000FFF723FA2846FFF767FA29463846FFF7C8
:100D700013FA29464046FFF70FFA3846FFF757FAAD
:100D80001FB0BDE8F08300BF00879303000400405C
:100D9000082301401064024008B5024B1B681B6821
:100DA000019308BDB001060808B5024B1B689B689B
:100DB000019308BDB001060808B5024B1B685B68CB
:100DC000019308BD9C01060808B5024B1B685B69CE
:100DD000019308BD9C01060808B5024B1B685B6ABD
:100DE000019308BDC401060808B5024B1B689B6A45
:100DF000019308BDC401060808B5024B1B68DB6AF5
:100E0000019308BDC401060808B5024B1B681B6BA3
:100E1000019308BDC401060808B5024B1B685B6B53
:100E2000019308BDC401060808B5024B1B681B6C82
:100E3000019308BDC401060808B5024B1B681B6E70
:100E4000019308BDC401060808B5024B1B681B6866
:100E5000019308BDD801060808B5024B1B685B6802
:100E6000019308BDD801060808B5024B1B681B6931
:100E7000019308BDD801060808B5024B1B685B69E1
:100E8000019308BDD801060808B5024B1B689B6991
:100E9000019308BDD801060808B5024B1B68DB6941
:100EA000019308BDD801060808B5024B1B681B6AF0
:100EB000019308BDD801060808B5024B1B689B6C5E
:100EC000019308BDC001060808B5024B1B685B68AA
:100ED000019308BDA401060808B5024B1B68DB6C32
:100EE000019308BDA401060808B5024B1B685B6DA1
:100EF000019308BDA401060808B5034B1B68D3F88D
:100F00009030019308BD0000A401060808B5034B0A
:100F10001B68D3F89C30019308BD0000A4010608AB
:100F200008B5024B1B685B68019308BDC801060841
:100F300008B5024B1B689B68019308BDC8010608F1
:100F400008B5024B1B68DB68019308BDC8010608A1
:100F500008B5024B1B681B69019308BDC801060850
:100F600008B5024B1B685B69019308BDC801060800
:100F700008B5024B1B689B69019308BDC8010608B0
:100F800008B5024B1B68DB69019308BDC801060860
:100F900008B5024B1B681B6A019308BDC80106080F
:100FA00008B5024B1B681B6B019308BDC8010608FE
:100FB00008B5024B1B685B6B019308BDC8010608AE
:100FC00008B5024B1B681B6C019308BDC8010608DD
:100FD00008B5024B1B685B6C019308BDC80106088D
:100FE00008B5024B1B681B68019308BDCC010608BD
:100FF00008B5024B1B685B69019308BDCC0106086C
:1010000008B5024B1B681B6A019308BDCC0106089A
:1010100008B5024B1B68DB6B019308BDCC010608C9
:1010200008B5024B1B681B68019308BDA0010608A8
:1010300008B5024B1B685B68019308BDA001060858
:1010400008B5024B1B68DB6A019308BDA0010608C6
:1010500008B5024B1B681B6B019308BDA001060875
:1010600008B5024B1B681B6C019308BDA001060864
:1010700008B5024B1B685B6C019308BDA001060814
:1010800002220020044B1A60044B054AC3E9000009
:101090009A60FFF719BF00BFC8200020BC200020C5
:1010A0000000FFFFF8B506460D4600248F18BD422C
:1010B0000CD0336830469B6815F8011B9847031E17
:1010C00001DB1C44F3E7002C08BF1C462046F8BD9A
:1010D00070B505460C46084649B102F048FD2B683C
:1010E000024621462846BDE87040DB68184770BDBF
:1010F00003689B6818470023012A98BF0A2230B56D
:101100008BB00C468DF8243009A92546B4FBF2F4C7
:1011100004FB1253DBB2092B94BF30333733DBB2FD
:10112000AA4201F8013DF0D9FFF7D2FF0BB030BD64
:10113000002340681A461946FFF712BF014B024AC6
:101140001A607047CC200020003D0A08024B1A6844
:10115000024B1A60704700BF08100020D02000200A
:1011600010B58368044613B1032201469847204610
:1011700010BD13B56C460B46024603C884E8030055
:1011800093E8030082E8030094E8030083E8030087
:1011900002B010BD0022014B9A607047D42000209D
:1011A000014B1860704700BF0C10002008B5134BAE
:1011B00043B100F011FC03681B699847002801DD6A
:1011C000AFF300800E4B43B100F0ACFD03681B6928
:1011D0009847002801DDAFF300800A4B0BB1AFF355
:1011E0000080094B43B100F031FC03681B6998474C
:1011F000002801DDAFF3008008BD00BF0000000043
:1012000000000000000000000000000008B5FFF72B
:10121000CDFFFFF7D9FD014B186008BD4824002021
:101220000548064A08B5121A054902F027FC054B85
:10123000054A1A6008BD00BF004002400440024059
:10124000C0400A08004002401E1C279A002307B530
:101250001A466FF077010093FFF758FE03B05DF870
:1012600004FB000007B543880A2B08D0502B0BD194
:10127000094B1B684BB103B05DF804EB1847FFF74F
:10128000E5FF03B05DF804FB00231A466FF0770119
:101290000093FFF73BFEF4E7E8200020002110B5A3
:1012A0001148FFF7E5FE114B1A68114B9A420CBF2B
:1012B000012200220F4B1A7001D0FFF7B1FFFFF798
:1012C0007BFD044602F00AFC0B4B13B12046AFF342
:1012D000008000210848FFF79BFEBDE81040002178
:1012E0000648FFF709BE00BFA1110A0800400240EE
:1012F0001E1C279AE42000200000000065120A0846
:1013000070470020704710B504461021FEF7C9FE53
:10131000204610BD08B5FFF7F6FF08BD002230B526
:101320004FF69C74026084808D888C800C68858068
:1013300004600A6030BD10B504460068FFF778FE0F
:10134000204610BD38B5C468F4B12378022B03D110
:1013500004F10C00FFF7EFFF656835B12846FFF791
:10136000FFFE10212846FEF79CFEA56835B12846F1
:10137000FFF7F6FE10212846FEF793FE2046BDE853
:1013800038401421FEF78DBE38BD0B6803604B68F2
:10139000436013B15A6801325A60704737B504464A
:1013A00068460D46FFF7F1FF009B019A236000237A
:1013B000626001A801930093FFF766FA35B1281D1A
:1013C000FFF762FA08212846FEF76BFE204603B0BD
:1013D00030BD826810B50AB900F0DEFCC368BDE814
:1013E0001040184708B5006800F11001FFF7F1FF41
:1013F00008BD826810B50AB900F0CEFCC368BDE82C
:101400001040184708B5006800F11001FFF7F1FF20
:1014100008BD000038B500230446036010200D46C7
:10142000FEF73BFE28B10123C0E90133024BC56042
:1014300003602060204638BD283D0A0838B50023E7
:1014400083608B6804460D462BB102229847EB68F7
:10145000E360AB68A360204638BD0000F0B589B0FA
:1014600004686846FFF75AFF4FF00203D4E84F2F95
:10147000002A03D1C4E8413F0029F7D125D104F166
:101480000C0569462846FFF749FF0123BFF35B8F30
:1014900063700020BFF35B8F04F1080353E8006F13
:1014A00043E80002002AF9D1BFF35B8F6EB1FFF76A
:1014B00013FD78B129463046FFF78BFF3046FFF722
:1014C0004FFE10213046FEF7ECFD6846FFF733FF74
:1014D00009B0F0BD314602A8FFF7B0FFE068B4F9EB
:1014E000105008B102F028FB06901020ADF81C50F7
:1014F000FEF7D3FD0546E8B1002787601820FEF708
:10150000CCFD044688B10146876002A8FFF731FE92
:10151000049BA268A360059B0492E26806A9E360AD
:1015200004F110000592FFF7F9FE084B2C60EB6008
:10153000074BAB6006A8FFF7FEFE02A8FFF710FE00
:10154000002229460348FFF7CFFCB7E7E5130A0856
:1015500071160A08351B0A082DE9F0478AB00546BE
:101560000C46174698469DF84890FFF741FD07AE98
:10157000824638BB4FF62E73059005A93046ADF86C
:101580001830FFF7CBFE1420FEF787FD044648B164
:10159000022303700123C0E901AA437031460C30D5
:1015A000FFF7BCFE2846214640F8044BFFF732FF08
:1015B0003046FFF7C0FE05A8FFF7BDFE28460AB07B
:1015C000BDE8F0870C234FF0000A1420CDE908AAEB
:1015D0000793FEF762FD014628B1C0E901AA80F831
:1015E00000A080F801A004A80391FFF713FF1F4B90
:1015F00008200893FEF751FD824610B103A9FFF7BA
:10160000C4FE42463946204600965FFA89F3CDF87B
:1016100024A0FFF7F5FCB8B9039B5B7803F0FF0249
:1016200093B94FF69C7305A903A80592ADF818303D
:10163000FFF714FF05A8FFF77EFE05A80999FFF73D
:10164000ADFE06A8FFF720F903A905A8FFF79DFE48
:10165000059B069A2B6000236A6006A806930593F3
:10166000FFF712F904A8FFF70FF9A7E7ED160A082C
:10167000012AF8B5054603D10B6803600020F8BDC8
:10168000022A10D0032AF9D10468002CF6D004F104
:101690001000FFF750FE2046FFF762FD182120469C
:1016A000FEF7FFFCEAE718200E68FEF7F6FC04469A
:1016B00050B13146FFF7C2FE3069B6F9147008B177
:1016C00002F03AFA2061A7822C60D7E738B50023F0
:1016D00083608B6804460D462BB102229847EB6865
:1016E000E360AB68A360204638BD0000F0B5044657
:1016F00089B00D4601A81146FFF750FEA4B124B2EF
:101700001DB1284602F018FA054601A803A9039561
:10171000ADF81040FFF7A2FE03A8FFF70CFE02A8E9
:10172000FFF7B2F809B0F0BD0123019DD5E84F2FB6
:10173000002A03D1C5E8413F0029F7D1EFD12B732F
:10174000BFF35B8F6B70BFF35B8F2B1D53E8006F94
:1017500043E80042002AF9D1BFF35B8F002EDED0B0
:101760002046FFF7B9FB074660B1304605F10C0192
:10177000FFF73FFE3046FFF7F3FC10213046FEF73F
:1017800090FCCCE7314603A8FFF7A0FF2B7B10208D
:101790008DF81C30FEF781FC0546D0B1876014201F
:1017A000FEF77BFC044678B10146876003A8FFF78B
:1017B000E0FC059BA268A360069B0592E268E360DB
:1017C0009DF81C3006922374064B2C60EB60064B90
:1017D000AB6003A8FFF7C4FC002229460348FFF7CB
:1017E00083FBC7E705140A08F1170A08351B0A0826
:1017F000012A70B5044603D10B680360002070BD58
:10180000022A0CD0032AF9D10468002CF6D0204615
:10181000FFF7A6FC14212046FEF743FCEEE7142058
:101820000E68FEF73AFC054620B13146FFF74EFF41
:10183000337C2B742560E1E77047F8B50E46002431
:1018400000F10807051D17F8011D0A223046FFF7B1
:1018500052FCAF42044401D12046F8BD002CF2D026
:101860002E213046FFF744FC0444ECE710B5044653
:101870001821FEF716FC204610BD000010B50446E6
:10188000044B1122002140F8043B02F01FF92046CE
:1018900010BD00BF443D0A080346074A10B543F88F
:1018A000042B01F1100251F8044B914243F8044B10
:1018B000F9D10A781A7010BD443D0A08024AC0E9FD
:1018C0000021042202757047443D0A0810B59DF8B6
:1018D000084044EA0324042344EA024444EA01643D
:1018E0004460037510BD000013B5044C04609DF8FE
:1018F00010400094FFF7EAFF02B010BD443D0A0813
:10190000417470477047704708B50021007CFFF7AD
:10191000BBFA40EAE07008BD08B50121007CFFF782
:10192000B3FA40EAE07008BD08B5007CFFF7A4FAFE
:1019300020EAE07008BD08B5007CFFF795FA20EAC0
:10194000E07008BD38B50446007C0D46FFF794FAF8
:10195000002801DC607C28B12946207CFFF79CFA36
:1019600020EAE07038BD007CFFF79EBA10B504464F
:101970001421FEF796FB204610BD704710B54FF4BA
:101980007A73044608460021C4E90113044B20740D
:101990002360012311466374FFF756FA204610BDF9
:1019A000583D0A080022007CFFF756BA10B50446DD
:1019B0001422002102F08AF8054B20466360054B93
:1019C000E36040F2011323818123238210BD00BF15
:1019D0001C2100201D22002030B50E4D87B001A82B
:1019E000FFF7E4FF2978BFF35B8F11F001040ED1FC
:1019F0002846FEF758FB50B1214601AA0648FFF7DA
:101A0000BDFF2846FEF754FB044802F031F80248B7
:101A100007B030BDEC200020F420002005190A0892
:101A200010B504461422002102F050F8054B204660
:101A30006360054BE36040F201132381812323821D
:101A400010BD00BF9E2200209F23002010B50E4C29
:101A500086B001A8FFF7E4FF2378BFF35B8FDB07B5
:101A60000ED42046FEF71FFB50B1012101AA074802
:101A7000FFF784FF2046FEF71BFB054801F0F8FF47
:101A8000024806B010BD00BFF02000200821002051
:101A90007B190A0870474174704708B5007CFFF74E
:101AA000C3F920EAE07008BD08B5007CFFF79CF997
:101AB00020EAE07008BD08B5007CFFF7A5F940EA10
:101AC000E07008BD08B5007CFFF796F940EAE070C9
:101AD00008BD007CFFF7A0B970B5467C04460D46F2
:101AE0002EB12946207CBDE87040FFF775B9007C17
:101AF000FFF79AF90028F4DC304670BD10B50446B3
:101B00001421FEF7CEFA204610BD000010B54FF4A8
:101B10007A730446084611460022C4E90123044BA7
:101B20002074236001236374FFF786F9204610BDFB
:101B3000883D0A0810B5836804460BB900F02CF9FB
:101B4000C3689847A3681BB10322214620469847E3
:101B50002046BDE810401021FEF7A3BA00224068DD
:101B60001146FFF7F5B9F0B5154689B011220E46BA
:101B70000446002103A801F0A9FF284601F0F7FF61
:101B8000002781B273682846009703AAFFF794F9EB
:101B900030B139462046FFF791FE204609B0F0BD2E
:101BA000204603A9FFF778FEF7E7002240681146B8
:101BB000FFF7EEB9002240681146FFF7F9B900229D
:101BC0004068FFF7EDB90022406881F00101FFF79E
:101BD000D7B9002340681A461946FFF7C9B9002251
:101BE00040681146FFF7A4B9002202214068FFF7C0
:101BF000A7B9002340681A46FFF792B90422024BA6
:101C00005A60024A1A60704720240020B83D0A0832
:101C1000002340681A46FFF783B90022022140687A
:101C2000FFF78EB9002240681146FFF781B9002204
:101C300040681146FFF78CB9002340681A461946E0
:101C4000FFF78EB9002340681A461946FFF790B98E
:101C500000214068FFF7B4B900214068FFF7B8B928
:101C60000022406881F00101FFF78AB90022406834
:101C7000FFF796B9002240681146FFF799B9002294
:101C800040681146FFF784B970B515468EB004461A
:101C900008A8FFF7F3FD1122002103A801F016FFA9
:101CA0000026284601F063FF0A4B009681B25B686C
:101CB000284603AAFFF700F930B131462046FFF766
:101CC000FDFD20460EB070BD204603A9FFF7E4FDE0
:101CD000F7E700BF20240020024B034A1A600022CD
:101CE0005A60704728240020F43D0A08704700001D
:101CF00070B5142504462A46002101F0E7FE258030
:101D00008025074E284631462581258200F03CF883
:101D100031466060284600F037F8E060204670BD2C
:101D2000283E0A0830B50E4D87B02978BFF35B8F87
:101D300011F0010411D12846FEF7B5F968B101A8E8
:101D4000FFF7D6FF214601AA0648FFF7DFFE284627
:101D5000FEF7AEF9044801F08BFE024807B030BD33
:101D60003024002034240020ED1C0A08002307B58D
:101D70001A46194600930348FFF7B6FD03B05DF815
:101D800004FB00BF4C240020FEF789B908B5FFF71B
:101D900057F908B5FFF754F908B5FFF751F90000F6
:101DA00010B5264C21F00043A34286B021DD244A21
:101DB000934209DD02460B4601F0E0F902460B466C
:101DC0001046194606B010BD02AA00F095F800F0C2
:101DD0000300012814D0022826D0E0B1DDE9042355
:101DE000DDE902010124009401F002F802460B46ED
:101DF000E6E70022002306B0BDE8104000F0A8BAD4
:101E0000DDE904230090DDE9020100F0F1FF024664
:101E100001F10043D4E7DDE90423DDE9020100F02C
:101E200097FA02460B46CBE7DDE90423DDE9020120
:101E300000F08EFA024601F10043C1E7FB21E93FC1
:101E4000FFFFEF7F10B5294C21F00043A34286B07D
:101E500020DD274A934209DD02460B4601F08EF948
:101E600002460B461046194606B010BD02AA00F005
:101E700043F800F00300012818D002282AD0F0B15E
:101E8000DDE90423DDE9020100F062FA024601F116
:101E90000043E7E7002400220023009400F0A8FF9D
:101EA00002460B461046194606B010BDDDE9042374
:101EB000DDE9020100F04CFA02460B46D2E70124AC
:101EC000DDE90423DDE90201009400F091FF024600
:101ED0000B46C7E70124DDE90423DDE90201009494
:101EE00000F086FF024601F10043BBE7FB21E93F1A
:101EF000FFFFEF7F000000002DE9F04FDFF838C250
:101F000021F000456545064614468FB040F38580B4
:101F10008A4A0F46954226DC7DA3D3E90023002997
:101F200040F3C08101F02AF9854B80469D428946E5
:101F300000F08A8078A3D3E9002301F01FF902465C
:101F40000B464046C4E90023494601F017F972A345
:101F5000D3E9002301F012F90126C4E90201304659
:101F60000FB0BDE8F08F774A954240F38D80764AF6
:101F700095425FDC4FEA2558A8F21648A5EB0851B8
:101F80008B4601F04DFD01F047FA02460B46304604
:101F90005946CDE9082301F0F1F800226B4B01F01E
:101FA000A5FA8B46824601F03BFD054601F034FA66
:101FB00002460B4650465946CDE90A2301F0DEF8A9
:101FC0000022624B01F092FA02460B46CDE90C2347
:101FD0000022002301F0F2FC002800F06181002DB6
:101FE0000CBF01230223022559494246019108A84A
:101FF0002146009500F0D4FA002F0646AFDAD4E966
:10200000000505F10041C4E90001E168A26801F1A1
:102010000043C4E902237642A1E700264FF00008FE
:102020004FF00009C2E900013046C2E902890FB051
:10203000BDE8F08F02460B4601F0A0F80026C4E987
:102040000201C4E900018AE735A3D3E9002301F0C6
:1020500095F835A3D3E900238046894601F08EF830
:1020600002460B464046C4E90023494601F086F883
:102070002DA3D3E9002301F081F80126C4E9020170
:1020800030460FB0BDE8F08F00F074FF28A3D3E90D
:1020900000238046894601F029FA00222D4B01F0E9
:1020A0006FF801F0BDFC064601F0B6F918A3D3E9BC
:1020B000002382468B46CDE904AB01F017FA0246B5
:1020C0000B464046494601F059F813A3D3E90023D3
:1020D000CDE902015046594601F008FA1F2E80460C
:1020E00089463BDC1C4B721E53F82230AB4235D084
:1020F00002460B46DDE9020101F040F802460B46BC
:1021000082468B46C4E90023AEE000BFAFF30080F7
:1021100000004054FB21F93F3163621A61B4D03DA5
:102120000000601A61B4D03D7370032E8A19A33B7E
:1021300083C8C96D305FE43FFB21E93F7BD9024092
:10214000FB21F93FFB213941FFFFEF7F0000704188
:10215000AC3E0A080000E03F2C3E0A082B1507930E
:102160004246DDE902014B4601F008F8C1F30A538B
:10217000C3EB1555102D8B46824671DD68A3D3E95C
:102180000023DDE9040101F0B1F9DDE902AB80468D
:10219000894642464B465046594600F0EFFF0246FC
:1021A0000B465046594692469B4600F0E7FF424692
:1021B0004B4600F0E3FF5CA3D3E900238046894649
:1021C000DDE9040101F092F942464B4600F0D6FFEA
:1021D000804689465046594642464B46CDE902ABB9
:1021E00000F0CCFF079AC1F30A53D31A312B8B4668
:1021F000824635DD4EA3D3E90023DDE9040101F079
:1022000075F9DDE902AB8046894642464B465046A9
:10221000594600F0B3FF02460B46504659469246D7
:102220009B46CDE902AB00F0A9FF42464B4600F0C9
:10223000A5FF41A3D3E9002380468946DDE90401D7
:1022400001F054F942464B4600F098FF804689461B
:102250005046594642464B4600F090FF8B46824618
:1022600052465B46C4E90023DDE9020152465B4663
:1022700000F084FF42464B4600F080FF02460B46CA
:10228000002FC4E90223BFF66AAE0BF1004301F14F
:102290000041A0606360E1607642C4F800A05EE6A1
:1022A0000323A0E600F06CFF274B80469D42894641
:1022B00016D023A3D3E9002300F062FF02460B46A9
:1022C0004046C4E90023494600F058FF1CA3D3E967
:1022D000002300F055FF4FF0FF36C4E902013EE64F
:1022E0000FA3D3E9002300F04BFF0FA3D3E9002392
:1022F0008046894600F044FF02460B464046C4E94A
:102300000023494600F03AFF07A3D3E9002300F079
:1023100037FF4FF0FF36C4E9020120E6AFF300803B
:102320000000601A61B4D03D7370032E8A19A33B7C
:102330000000002E8A19A33BC14920259A837B39CE
:102340003163621A61B4D03DFB21F93F0000000007
:102350002DE9F04F21F00046B6F1795F92469B4699
:102360000C46054685B06DDA01F05AFB002800F0F6
:10237000EB802A4623462846214601F0B7F876A38B
:10238000D3E900238046894601F0B0F874A3D3E96D
:10239000002300F0F5FE42464B4601F0A7F872A379
:1023A000D3E9002300F0EAFE42464B4601F09EF8D6
:1023B0006FA3D3E9002300F0E3FE42464B4601F051
:1023C00095F86DA3D3E9002300F0D8FE42464B46B2
:1023D00001F08CF86AA3D3E9002300F0D1FE424655
:1023E0004B4601F083F8CDE9000100224046494602
:1023F000654B01F07BF8DDE9002306460F464046B9
:10240000494601F073F8A846A14652465B46044689
:102410000D464046494601F069F802460B46204603
:10242000294600F0ABFE02460B463046394600F026
:10243000A5FE02460B460020544900F09FFE05B061
:10244000BDE8F08F02460B4601F050F842A3D3E9F5
:1024500000238046894601F049F841A3D3E90023CF
:1024600000F08EFE42464B4601F040F83EA3D3E911
:10247000002300F083FE42464B4601F037F83CA3B0
:10248000D3E9002300F07CFE42464B4601F02EF8D3
:1024900039A3D3E9002300F071FE42464B4601F018
:1024A00025F837A3D3E9002300F06AFE4B464246E5
:1024B00001F01CF8364BCDE900019E4295DD354B0D
:1024C00000229E423ADCA6F5001300202F49164652
:1024D0001F4600F053FECDE9020100224046494666
:1024E000294B01F003F832463B4600F047FEDDE998
:1024F000002306460F464046494600F0F7FFA8462F
:10250000A14652465B4604460D464046494600F009
:10251000EDFF02460B462046294600F02FFE0246FC
:102520000B463046394600F029FE02460B46DDE9EF
:10253000020100F023FE05B0BDE8F08F164B002627
:10254000CDE90223154FC8E70020104905B0BDE8CA
:10255000F08F00BFAFF30080D43888BEE9FAA8BD81
:10256000C4B1B4BD9EEE213EAD529C804F7E923EE2
:102570009015CB19A001FA3E7751C1166CC1563F98
:102580004C5555555555A53F0000E03F0000F03F24
:102590003233D33F0000E93F0000E73F0000D23F65
:1025A0002DE9F04FADF5197DB84CA29D089354F874
:1025B0002540013B12F1140F074605940B9103933C
:1025C000C0F24283B249D31E81FB0301DB17C3EB88
:1025D000A10307930133A3EB8303DB00D318069316
:1025E000079A039BD61A059A12EB03091BD409F12B
:1025F000010900240025DDF88CA2B1440DF180080A
:1026000008E05AF8260000F007FF01364E45E8E8DA
:10261000020108D0002EF4DA2046294601364E4544
:10262000E8E80201F6D1059B002BC0F2BC83089BB1
:1026300020AA02EBC30ADA000292059AA7F1080168
:102640001A44DDF80C9004910DF5E07B019201EB4A
:10265000C308039B002BC0F2AE815746002400251F
:10266000049E77E90223F6E9020100F03FFF0246EB
:102670000B462046294600F083FD464504460D469C
:10268000EFD1019B09F101099945EBE802450AF1F7
:10269000080ADED1049BDDF808B00BAA9B44059B19
:1026A00002EB83020A920CAA019302EB8303083B1C
:1026B0000993019A98AB03EBC203002A53E928451A
:1026C00029DD0DF5E07A0DF130090AEBC208002290
:1026D000704B2046294600F009FF01F0A1F900F0F7
:1026E0009BFE00226C4B06460F4600F0FFFE0246A2
:1026F0000B462046294600F041FD01F091F978E9AA
:10270000022349F8040B3946304600F039FDD04524
:1027100004460D46DBD1DDF81890204629464A468E
:1027200000F0AAFC00224FF07F5304460D4600F053
:10273000DDFE00F025FC0022584B00F0D7FE0246DB
:102740000B462046294600F019FD0D46044601F0CF
:1027500067F9804600F060FE0B4602462946204697
:1027600000F00CFD4B46002B06460F4640F39880C8
:10277000019A0CA9013A51F82250C9F1180345FAFF
:1027800003F101FA03F3ED1A0CAB43F82250C9F13F
:1027900017031D41002D884400F38C800022002384
:1027A0003046394601F00AF9002800F05482019BB6
:1027B000059A03F1FF3A524510DC002203F18043F1
:1027C000013B0CA90A9801EB830353F804198342D7
:1027D00042EA0102F9D1002A40F0F080059B0CAAE0
:1027E000013B52F82330002B40F0E0800123099A8E
:1027F00052F8041901330029FAD0019AD318029330
:10280000531C9946DDF80480089A9044079A02EB1D
:10281000030A0AF1804AA39A0AF1FF3A02EB8A0AF4
:1028200020AA02EBC80870AA02EBC30301935AF86E
:10283000040F00F0F1FD039B4746002B08F1080848
:1028400048E902011FDB00240025049E083F01E047
:1028500077E80201F6E9022300F048FE02460B4643
:102860002046294600F08CFC5E4504460D46EFD11B
:10287000019B09F10109E3E802450193029B994597
:10288000D5DD019315E700240025F1E7F83F0A089C
:10289000ABAAAA2A0000703E000070410000204050
:1028A0006BD1019B0CAA013B52F82350ED15002D72
:1028B0007FF774AF019B08F10108002B40F3C98139
:1028C0000C9C002C51D1019B012B20D001220CAB80
:1028D00053F8044F002C4BD0531C0CA9C4F1807446
:1028E00041F822400199994210DD0CAC0CAA52F833
:1028F00023206FF07F4004EB830304EB810100E0B1
:102900001A68821A43F8042B8B42F9D10124069BE2
:10291000002B0EDD012B00F08C81022B09D1019BD5
:102920000CA95A1E0CAB53F82230C3F3150341F81F
:102930002230022D7FF432AF32463B4600207A49E6
:1029400000F01CFC06460F46002C3FF427AF069A09
:102950000020754900F090FB02460B463046394690
:1029600000F00CFC06460F4618E701230022B4E7EE
:10297000019901328A42ABD1C9E700226B4B01F0C9
:102980003BF8054600283FF409AF019B08F1010818
:10299000002BC8BF022593DC32463B46002062492B
:1029A00000F0ECFB022506460F46F7E6019B0133DB
:1029B0009946029326E70024002562E6069B0395CC
:1029C000A3F118020CAB53F82A30CDF81C80069204
:1029D00073B9019B0CA903F18043023B01EB830314
:1029E00053F804190AF1FF3A183A0029F8D0069270
:1029F0000020069A4C4900F03FFBBAF1000F044654
:102A00000D46C0F2D7814FF0000870AB03EBCA0B44
:102A10000CAA0AF10103069302EB8306DFF810917A
:102A20004FEACA0304930BF1080756F8040D00F0AF
:102A3000F3FC22462B4600F059FD4B4667E90201A4
:102A400042462046294600F051FD0CAB9E4204460A
:102A50000D46EAD148ABCDE9013ADDF814A04FF0BC
:102A60000009BAF1000F2CDB2DA3D3E900235F4648
:102A7000002600240025DFF8BC8003E0B14510DB10
:102A8000F8E80223F7E8020100F030FD02460B46A9
:102A90002046294600F074FB0136B24504460D4637
:102AA000ECDA019B029A03EBC9039145C3E90045A7
:102AB000ABF1080B09F1010306D0BAF1000F9946FA
:102AC000D2DA00240025ECE7A29BDDF808A0022B57
:102AD00032DC002B00F3F28018D1A29B049D1C462F
:102AE000019E08353544184675E90223214600F059
:102AF00047FBAE4203460C46F5D1039A0AB104F1F6
:102B00000044184621460B9BC3E90001079B03F0D4
:102B100007000DF5197DBDE8F08F00BFAFF3008011
:102B200000000040FB21F93F0000F03F0000E03FC3
:102B30000000703EC03F0A08A29B032BE6D1BAF109
:102B4000000F00F04D81019B049A13449B46D3E98A
:102B500000455BE902672046294632463B4600F0C5
:102B60000FFBA046A94604460D4622462B4630469A
:102B7000394600F003FB4B46424600F001FBCBE92F
:102B800000016BE90245019B5B45E2D1BAF1010FFF
:102B900040F32681049B019A0DF5947B13449A46D9
:102BA000D3E9004502935AE9026720462946324696
:102BB0003B4600F0E5FAA046A94604460D462246EB
:102BC0002B463046394600F0D9FA42464B4600F0D3
:102BD000D7FACAE900016AE90245D345E3D10023E7
:102BE0001E46029C019A083402F11005184674E949
:102BF0000223314600F0C4FAA54203460E46F5D141
:102C0000039A002A40F0A480184631460B9C019B91
:102C1000C4E90401D3E90223C4E90223DDE948231E
:102C2000C4E90023079B03F007000DF5197DBDE8FB
:102C3000F08F019B0CA95A1E0CAB53F82230C3F342
:102C4000160341F8223074E600216FF01703079154
:102C5000C4E400245BE6069C304639466242039594
:102C6000CDF81C8000F008FA00225F4B06460F46A4
:102C700000F0C2FE002861D000225C4B18343046C0
:102C80003946069400F032FC00F0CAFE044600F01B
:102C9000C3FB0022544B00F029FC0B460246394688
:102CA000304600F06BFA00F0BBFE019D0CAB05F165
:102CB000010A43F8250043F82A4099E600263446E5
:102CC000019F069B07EBC305304675E902232146A9
:102CD00000F056FAAF4206460C46F5D1039B002B96
:102CE00050D13046214623460B9C3246C4E90001B0
:102CF000DDE9480100F042FABAF1000F03460E4642
:102D000010DD012448AD1846F5E90223314600F0F4
:102D100037FA0134A24503460E46F4DA039A0AB1A3
:102D200006F10046184631460B9BC3E90201079B9A
:102D300003F007000DF5197DBDE8F08F30463946E8
:102D400000F06EFE019B0CAA9A4642F823004FE663
:102D50000B9D019C06F100466E6126462068A26824
:102D600064682B6104F10041F468C5E9000104F1D5
:102D70000043C5E90223079B03F007000DF5197D09
:102D8000BDE8F08F0B9804F10041066032462346FF
:102D90004160DDE9480100F0F1F9BAF1000F0346A6
:102DA0000E46AEDCBCE7A7F108030493089BDB00EA
:102DB00002936FE4A29B022B06DC002B0DDC7FF458
:102DC000A5AEA29B1C4698E6A29B032B7FF49EAE69
:102DD000002348AA1E46019212E7002634467DE7EA
:102DE00000231E460CE700BF000070410000703E4B
:102DF0002DE9F04F85B0CDE9022321F00043B3F176
:102E0000795F8246019104DA00F00AFE002800F0A2
:102E10008E80019B52461946504600F067FB0446DF
:102E20000D46019B2246194650462B4600F05EFB9C
:102E300043A3D3E9002306460F462046294600F067
:102E400055FB41A3D3E9002300F098F922462B4615
:102E500000F04CFB3EA3D3E9002300F091F9224699
:102E60002B4600F043FB3CA3D3E9002300F086F996
:102E700022462B4600F03AFB39A3D3E9002300F0A9
:102E80007FF90E9B80468946BBB3DDE90201002233
:102E9000374B00F02BFB42464B4680468946304676
:102EA000394600F023FB02460B464046494600F0F7
:102EB00065F922462B4600F019FBDDE9022300F0FC
:102EC0005DF929A3D3E9002304460D46304639466F
:102ED00000F00CFB02460B462046294600F050F954
:102EE00002460B465046019900F048F982468B464F
:102EF0005046594605B0BDE8F08F02460B462046C5
:102F0000294600F0F3FA18A3D3E9002300F036F9BC
:102F100032463B4600F0EAFA5246019B00F030F997
:102F200082468B465046594605B0BDE8F08FDDF825
:102F300004B05046594605B0BDE8F08FAFF30080AD
:102F40007CD5CF5A3AD9E53DEB9C2B8AE6E55A3E33
:102F50007DFEB157E31DC73ED561C119A0012A3FCF
:102F6000A6F810111111813F495555555555C53FCA
:102F70000000E03F21F00041704700BF000000006A
:102F8000C1F30A52F8B5A2F2FF35132D0B46844661
:102F90000C46064630DC002D1EDB354F2F4101EA82
:102FA0000702024315D030A3D3E9002300F0E8F86C
:102FB0000022002300F02AFD48B1002C04DA4FF46F
:102FC000801343FA05F52C44002624EA070423461F
:102FD000B44660461946F8BD23A3D3E9002300F0A8
:102FE000CFF80022002300F011FD0028EFD0002CC4
:102FF00024DB00263446EAE7332D08DDB5F5806F83
:10300000E7D1024600F0BCF884460B46E1E74FF0FA
:10301000FF37A2F21342D7400742DAD012A3D3E916
:10302000002300F0ADF80022002300F0EFFC0028A0
:10303000CDD0002C0BDB26EA0706C8E724F00043BE
:103040000C4A1E43002E18BF14460026BFE7142D5D
:1030500008D00123C5F1340503FA05F5AE1928BFE0
:10306000E418E8E70134E6E79C7500883CE4377E25
:10307000FFFF0F000000F0BFC1F30A5370B58C468C
:1030800004460D4616467BBB034621F0004C5CEA25
:10309000030328D0324B002200F028FA314B0446BB
:1030A0009E420D461ADB8C46C1F30A53363B40F272
:1030B000FE723344934220DC002B3EDC13F1350FCB
:1030C0002CDA4CF250339E4217DC05F0004343F0FB
:1030D000D27141F4B731244841F01F011CA3D3E958
:1030E000002300F003FA70BD40F2FF7E7345DED18D
:1030F00002460B4600F044F870BD05F0004343F073
:10310000FC4141F45F1141F4105113A3D3E90023B2
:10311000164841F03C0100F0E9F970BD2CF0FF4C7D
:1031200003F136012CF4E00C4CEA01550022204654
:1031300029460F4B00F0DAF970BD2CF0FF4C2CF44F
:10314000E00C20464CEA035170BD00BFAFF3008095
:1031500059F3F8C21F6EA5019C7500883CE4377EC8
:1031600000005043B03CFFFF59F3F8C29C75008843
:103170000000903C81F0004102E000BF83F000437A
:1031800030B54FEA41044FEA430594EA050F08BF02
:1031900090EA020F1FBF54EA000C55EA020C7FEAC6
:1031A000645C7FEA655C00F0E2804FEA5454D4EB43
:1031B0005555B8BF6D420CDD2C4480EA020281EA0D
:1031C000030382EA000083EA010180EA020281EA45
:1031D0000303362D88BF30BD11F0004F4FEA013197
:1031E0004FF4801C4CEA113102D0404261EB4101A6
:1031F00013F0004F4FEA03334CEA133302D052422C
:1032000063EB430394EA050F00F0A780A4F10104E7
:10321000D5F1200E0DDB02FA0EFC22FA05F2801821
:1032200041F1000103FA0EF2801843FA05F3594107
:103230000EE0A5F120050EF1200E012A03FA0EFC86
:1032400028BF4CF0020C43FA05F3C01851EBE371B0
:1032500001F0004507D54FF0000EDCF1000C7EEBCD
:1032600000006EEB0101B1F5801F1BD3B1F5001F0B
:103270000CD349085FEA30004FEA3C0C04F101042A
:103280004FEA445212F5800F80F09A80BCF1004F53
:1032900008BF5FEA500C50F1000041EB045141EAD5
:1032A000050130BD5FEA4C0C404141EB0101013C9E
:1032B00028BFB1F5801FE9D291F0000F04BF01468D
:1032C0000020B1FA81F308BF2033A3F10B03B3F15F
:1032D00020020CDA0C3208DD02F1140CC2F10C02EF
:1032E00001FA0CF021FA02F10CE002F11402D8BF4D
:1032F000C2F1200C01FA02F120FA0CFCDCBF41EA19
:103300000C019040E41AA2BF01EB0451294330BDE7
:103310006FEA04041F3C1CDA0C340EDC04F11404C4
:10332000C4F1200220FA04F001FA02F340EA03009B
:1033300021FA04F345EA030130BDC4F10C04C4F1E1
:10334000200220FA02F001FA04F340EA03002946C1
:1033500030BD21FA04F0294630BD94F0000F83F40B
:10336000801306BF81F480110134013D4EE77FEAEE
:10337000645C18BF7FEA655C29D094EA050F08BF3A
:1033800090EA020F05D054EA000C04BF194610461B
:1033900030BD91EA030F1EBF0021002030BD5FEA5F
:1033A000545C05D14000494128BF41F0004130BD87
:1033B00014F580043CBF01F5801130BD01F00045DB
:1033C00045F0FE4141F470014FF0000030BD7FEA4E
:1033D000645C1ABF194610467FEA655C1CBF0B4649
:1033E000024650EA013406BF52EA033591EA030F60
:1033F00041F4002130BD00BF90F0000F04BF002158
:10340000704730B54FF4806404F132044FF000058A
:103410004FF0000150E700BF90F0000F04BF002103
:10342000704730B54FF4806404F1320410F0004569
:1034300048BF40424FF000013EE700BF42004FEA64
:10344000E2014FEA31014FEA02701FBF12F07F43E1
:1034500093F07F4F81F06051704732F07F4208BF98
:10346000704793F07F4F04BF41F40021704730B59F
:103470004FF4607401F0004521F000411CE700BFEB
:1034800050EA010208BF704730B54FF000050AE06E
:1034900050EA010208BF704730B511F0004502D56F
:1034A000404261EB41014FF4806404F132045FEA71
:1034B000915C3FF4D8AE4FF003025FEADC0C18BF1A
:1034C00003325FEADC0C18BF033202EBDC02C2F10C
:1034D000200300FA03FC20FA02F001FA03FE40EA9E
:1034E0000E0021FA02F11444BDE600BF70B54FF0A2
:1034F000FF0C4CF4E06C1CEA11541DBF1CEA135580
:1035000094EA0C0F95EA0C0F00F0DEF82C4481EAE7
:10351000030621EA4C5123EA4C5350EA013518BF07
:1035200052EA033541F4801143F4801338D0A0FBF4
:1035300002CE4FF00005E1FB02E506F00042E0FBA1
:1035400003E54FF00006E1FB03569CF0000F18BFA7
:103550004EF0010EA4F1FF04B6F5007F64F540744F
:1035600004D25FEA4E0E6D4146EB060642EAC621E2
:1035700041EA55514FEAC52040EA5E504FEACE2E4F
:10358000B4F1FD0C88BFBCF5E06F1ED8BEF1004F52
:1035900008BF5FEA500E50F1000041EB045170BDCE
:1035A00006F0004646EA010140EA020081EA030112
:1035B000B4EB5C04C2BFD4EB0C0541EA045170BD0E
:1035C00041F480114FF0000E013C00F3AB8014F188
:1035D000360FDEBF002001F0004170BDC4F10004D1
:1035E000203C35DA0C341BDC04F11404C4F1200552
:1035F00000FA05F320FA04F001FA05F240EA0200AD
:1036000001F0004221F0004110EBD37021FA04F6E2
:1036100042EB06015EEA430E08BF20EAD37070BD9C
:10362000C4F10C04C4F1200500FA04F320FA05F0FB
:1036300001FA04F240EA020001F0004110EBD370FD
:1036400041F100015EEA430E08BF20EAD37070BD6D
:10365000C4F1200500FA05F24EEA020E20FA04F346
:1036600001FA05F243EA020321FA04F001F00041F5
:1036700021FA04F220EA020000EBD3705EEA430E66
:1036800008BF20EAD37070BD94F0000F0FD101F095
:103690000046400041EB010111F4801F08BF013CCE
:1036A000F7D041EA060195F0000F18BF704703F00C
:1036B0000046520043EB030313F4801F08BF013D93
:1036C000F7D043EA0603704794EA0C0F0CEA13554F
:1036D00018BF95EA0C0F0CD050EA410618BF52EA09
:1036E0004306D1D181EA030101F000414FF000000F
:1036F00070BD50EA410606BF1046194652EA43061D
:1037000019D094EA0C0F02D150EA013613D195EA90
:103710000C0F05D152EA03361CBF104619460AD1D8
:1037200081EA030101F0004141F0FE4141F47001E2
:103730004FF0000070BD41F0FE4141F4780170BDD2
:1037400070B54FF0FF0C4CF4E06C1CEA11541DBF37
:103750001CEA135594EA0C0F95EA0C0F00F0A7F839
:10376000A4EB050481EA030E52EA03354FEA013166
:1037700000F088804FEA03334FF0805545EA131379
:1037800043EA12634FEA022245EA111545EA106541
:103790004FEA00260EF000419D4208BF964244F1D8
:1037A000FD0404F5407402D25B084FEA3202B61AF7
:1037B00065EB03055B084FEA32024FF480104FF4CB
:1037C000002CB6EB020E75EB030E22BFB61A75463F
:1037D00040EA0C005B084FEA3202B6EB020E75EBD2
:1037E000030E22BFB61A754640EA5C005B084FEA3A
:1037F0003202B6EB020E75EB030E22BFB61A754607
:1038000040EA9C005B084FEA3202B6EB020E75EB11
:10381000030E22BFB61A754640EADC0055EA060ED2
:1038200018D04FEA051545EA16754FEA06164FEA15
:10383000C30343EA52734FEAC2025FEA1C1CC0D1C1
:1038400011F4801F0BD141EA00014FF000004FF04E
:10385000004CB6E711F4801F04BF01430020B4F10F
:10386000FD0C88BFBCF5E06F3FF6AFAEB5EB030CC7
:1038700004BFB6EB020C5FEA500C50F1000041EBC4
:10388000045170BD0EF0004E4EEA113114EB5C0491
:10389000C2BFD4EB0C0541EA045170BD41F4801164
:1038A0004FF0000E013C90E645EA060E8DE60CEA6C
:1038B000135594EA0C0F08BF95EA0C0F3FF43BAF89
:1038C00094EA0C0F0AD150EA01347FF434AF95EA40
:1038D0000C0F7FF425AF104619462CE795EA0C0F24
:1038E00006D152EA03353FF4FDAE1046194622E7F1
:1038F00050EA410618BF52EA43067FF4C5AE50EACB
:1039000041047FF40DAF52EA43057FF4EBAE12E7BA
:103910004FF0FF3C06E000BF4FF0010C02E000BF9B
:103920004FF0010C4DF804CD4FEA410C7FEA6C5C7E
:103930004FEA430C18BF7FEA6C5C1BD001B050EA21
:10394000410C0CBF52EA430C91EA030F02BF90EA0C
:10395000020F0020704710F1000F91EA030F58BFCB
:10396000994208BF90422CBFD8176FEAE37040F02D
:10397000010070474FEA410C7FEA6C5C02D150EACB
:10398000013C07D14FEA430C7FEA6C5CD6D152EA86
:10399000033CD3D05DF8040B704700BF844610464B
:1039A00062468C461946634600E000BF01B5FFF74A
:1039B000B7FF002848BF10F1000F01BD4DF808ED1A
:1039C000FFF7F4FF0CBF012000205DF808FB00BFEB
:1039D0004DF808EDFFF7EAFF34BF012000205DF845
:1039E00008FB00BF4DF808EDFFF7E0FF94BF012092
:1039F00000205DF808FB00BF4DF808EDFFF7CEFF93
:103A000094BF012000205DF808FB00BF4DF808EDD1
:103A1000FFF7C4FF34BF012000205DF808FB00BFA2
:103A20004FEA410212F5001215D211D56FF47873E6
:103A3000B3EB625212D94FEAC12343F0004343EA89
:103A4000505311F0004F23FA02F018BF4042704764
:103A50004FF00000704750EA013005D111F00040EE
:103A600008BF6FF0004070474FF00000704700BF84
:103A7000002301461A46184600F082B80A449142D3
:103A800000F1FF3300D1704710B511F8014B91429E
:103A900003F8014FF9D110BD884210B501EB0204C3
:103AA00002D98442234607D8431EA14208D011F808
:103AB000012B03F8012FF8E7014602448A4200D1A6
:103AC00010BD13F8014D02F8014DF7E7034602441B
:103AD000934200D1704703F8011BF9E738B5104B4A
:103AE00004461D68AB6BB3B91820FDF799FA02467E
:103AF000A86320B942210B4B0B48FDF7B1FA0B49E3
:103B00000B4BC0E900130B4B002183600B23838117
:103B10000120C2E904010022AB6B1C615A6138BD6F
:103B20000C10002008400A081F400A080E33CDABD5
:103B300034126DE6ECDE0500024B0146186800F019
:103B400003B800BF0C10002070B5044608460D46AF
:103B500000F00DF8461C31462046FDF779FA044680
:103B600018B132462946FFF789FF204670BD03464B
:103B700013F8012B002AFBD1181A013870470000F6
:103B80002DE9F843DFF8AC800646D8F800001F4660
:103B90000D46914600F058F8274B1C6834B9274C65
:103BA0001C60274B13B11B68C4F8883063681F2B57
:103BB00007DDD8F8000000F049F84FF0FF30BDE80D
:103BC000F8835EB3D4F8880088B91E4B23B9D8F8BF
:103BD000000000F03AF8F0E74FF48470FDF720FAA7
:103BE0000028F4D00023C0E94033C4F88800012243
:103BF0006368022E40F8239002FA03F200EB83017F
:103C0000D0F8003143EA0203C0F80031C1F88070F7
:103C100002BFD0F804311343C0F804316368D8F808
:103C200000005A1C0233626044F8235000F00EF882
:103C30000020C4E770100020F0240020642400203D
:103C40000000000021100A0870477047704700000C
:103C500021000A0861000A0889000A088D000A0884
:103C600000000000766563746F723A3A5F4D5F72D0
:103C700065616C6C6F635F696E7365727400726509
:103C8000737069726174696F6E0063616E6E6F74D8
:103C900020637265617465207374643A3A76656373
:103CA000746F72206C6172676572207468616E2037
:103CB0006D61785F73697A652829004D69736D615C
:103CC0007463686564206C656E6774687300657200
:103CD00072004C656E677468206973206E6F742083
:103CE0006120706F776572206F66203200000000DF
:103CF0000000000000000000F50B0A08F70B0A089E
:103D00006170700025592D256D2D25645425483A84
:103D1000254D3A2553257A0061736374696D6500FA
:103D2000000000000000000001130A0807130A0841
:103D300045130A0815130A0803130A0800000000B7
:103D4000000000003B180A0839180A086D180A0814
:103D5000000000000000000007190A086D190A0899
:103D600045190A08A5100A0837190A0809190A0886
:103D700019190A0867190A0829190A0801190A08ED
:103D80000000000000000000951A0A08FD1A0A0849
:103D9000D91A0A08A5100A08A91A0A08C51A0A0891
:103DA000B71A0A08D31A0A08971A0A089B1A0A08A7
:103DB0000000000000000000F31B0A08E91B0A08CD
:103DC000DF1B0A085D1B0A0831110A08D31B0A0809
:103DD000511C0A08591C0A08C71B0A08BF1B0A08FD
:103DE000B51B0A08AB1B0A08671B0A080000000085
:103DF00000000000111C0A081B1C0A08251C0A08E8
:103E00002F1C0A08391C0A08451C0A08511C0A08FC
:103E1000591C0A08611C0A086D1C0A08751C0A084E
:103E20007F1C0A08891C0A0800000000FB21F93FDA
:103E3000FB2109407CD91240FB2119407A6A1F40BE
:103E40007CD92240BBFD2540FB2129403A462C402D
:103E50007A6A2F405C4731407CD932409C6B3440B9
:103E6000BBFD3540DB8F3740FB2139401BB43A4066
:103E70003A463C405AD83D407A6A3F404C7E4040EA
:103E80005C4741406C1042407CD942408CA2434088
:103E90009C6B4440AC344540BBFD4540CBC64640DE
:103EA000DB8F4740EB584840FB21494083F9A20093
:103EB000444E6E00FC291500D1572700DD34F50073
:103EC00062DBC0003C999500419043006351FE00C5
:103ED000BBDEAB00B761C5003A6E2400D24D420094
:103EE0004906E00009EA2E001C92D100EB1DFE00FD
:103EF00029B11C00E83EA700F535820044BB2E0026
:103F00009CE98400B4267000417E5F00D6913900A0
:103F1000538339009CF439008B5F840028F9BD007D
:103F2000F81F3B00DEFF97000F980500112FEF00F0
:103F30000A5A8B006D1F6D00CF7E360009CB27001B
:103F4000464FB7009E663F002DEA5F00BA27750016
:103F5000E5EBC7003D7BF100F739070092528A007C
:103F6000FB6BEA001FB15F00085D8D003003560057
:103F70007BFC4600F0AB6B0020BCCF0036F49A000F
:103F8000E3A91D005E619100081BE60085996500AC
:103F9000A0145F008D40680080D8FF0027734D009B
:103FA00006063100CA561500C9A873007BE26000FE
:103FB0006B8CC0000000000000000040FB21F93FB6
:103FC000000000002D44743E000000809846F83C3C
:103FD0000000006051CC783B00000080831BF0396A
:103FE0000000004020257A38000000802282E3365D
:103FF000000000001DF3693502000000030000000E
:1040000004000000060000005245454E54206D613A
:104010006C6C6F6320737563636565646564002F02
:104020006D6E742F776F726B73706163652F776F2E
:10403000726B73706163652F4743432D31302D7070
:104040006970656C696E652F6A656E6B696E732D3C
:104050004743432D31302D706970656C696E652D55
:1040600034385F32303230313132345F31363036CD
:104070003138303634312F7372632F6E65776C6947
:10408000622F6E65776C69622F6C6962632F73743F
:10409000646C69622F72616E642E630015080A08F1
:1040A000E90B0A0881100A083D110A084D110A0897
:1040B00095110A08FD1B0A08D91C0A086D1D0A087B
:0440C00000000000FC
:1040C40081861C88D94D553F9CD96B4DCB5C553F9F
:1040D40058F50D0BB56B553F5A255FAE967A553F93
:1040E400BFF4C2247089553F2640A45B4198553FD4
:1040F400BE8F75400AA7553F4D29B1C0CAB5553F7B
:104104002AFED8C982C4553F4CF3764932D3553F71
:1041140054051D2DD9E1553F8848656277F0553F18
:10412400E00CF2D60CFF553F0F266E78990D563FE2
:1041340085D98C341D1C563F6FF009F9972A563FD8
:10414400CB11AAB30939563F62B03A527247563F6F
:10415400D64092C2D155563FA23990F22764563FB9
:1041640023491DD07472563FA59D2B49B880563FF4
:104174005479B64BF28E563F5DF8C2C5229D563F28
:10418400E3C85FA549AB563F074FA5D866B9563F6C
:10419400EEDAB54D7AC7563FD1CCBDF283D5563F42
:1041A400F694F3B583E3563FBBE9978579F1563F1F
:1041B4009BC7F54F65FF563F38B96203470D573F1C
:1041C4005CC53E8E1E1B573F03B7F4DEEB28573FFA
:1041D4005B1DFAE3AE36573FCE5DCF8B6744573F46
:1041E4000D0E00C51552573F08BE227EB95F573FDA
:1041F400FF3FD9A5526D573F8DF0D02AE17A573F42
:104204009A6EC2FB6488573F73077207DE95573F67
:10421400CCC8AF3C4CA3573FBB5C578AAFB0573FA9
:10422400CD8750DF07BE573F00F38E2A55CB573F4B
:10423400D797125B97D8573F4666E75FCEE5573F5F
:10424400DAF82528FAF2573F9E16F3A21A00583FCF
:104254003B5580BF2F0D583FE9D00B6D391A583F9D
:104264008686E09A3727583F872F56382A34583F96
:1042740018C0D1341141583F0C1FC57FEC4D583F35
:10428400EB6DAF08BC5A583FFA3E1DBF7F67583FDD
:10429400375FA8923774583F6C54F872E380583FE4
:1042A4002415C24F838D583FCBAAC818179A583F7C
:1042B4008E8FDCBD9EA6583F8074DC2E1AB3583F07
:1042C400991DB55B89BF583FA83D6134ECCB583F7D
:1042D4007818EAA842D8583FB81667A98CE4583F22
:1042E4000F20FE25CAF0583F28D1E30EFBFC583FAF
:1042F400A5575B541F09593F32A8B6E63615593FF6
:1043040087A256B64121593F6C23ABB33F2D593F89
:10431400C32833CF3039593F7B9B7CF91445593F2F
:10432400B9152523EC50593FB740D93CB65C593FE9
:10433400E06455377368593FCC4565032374593F8E
:10434400528EE491C57F593F7664BED35A8B593F50
:1043540083F9EDB9E296593F08787E355DA2593F5D
:10436400DF158B37CAAD593F30383FB129B9593FB2
:104374006E61D6937BC4593F79C19CD0BFCF593F5E
:104384007593EE58F6DA593F0208391E1FE6593F75
:104394001AB5F9113AF1593F1FDEBE2547FC593FC2
:1043A400F5DF274B46075A3FEBD6E47337125A3FE3
:1043B400CAD4B6911A1D5A3FE1287096EF275A3F86
:1043C400034EF473B6325A3F8AFC371C6F3D5A3F92
:1043D4006672418119485A3F123D2895B5525A3F99
:1043E400A493154A435D5A3FD3564492C2675A3F39
:1043F400F010016033725A3FF93DAAA5957C5A3FEB
:104404009439B055E9865A3F1B7595622E915A3FEF
:104414009453EEBE649B5A3FC283615D8CA55A3FA0
:104424002800A830A5AF5A3F060F8D2BAFB95A3FCD
:104434006778EE40AAC35A3F1D86BC6396CD5A3FA7
:10444400D139FA8673D75A3FF004BD9D41E15A3FF2
:10445400D06A2D9B00EB5A3F9CB88672B0F45A3F49
:104464005E17171751FE5A3F0BE63F7CE2075B3F8E
:104474007C71759564115B3F7B603F56D71A5B3F37
:10448400C7A138B23A245B3F0D5A0F9D8E2D5B3F76
:10449400F83D850AD3365B3F3BA46FEE07405B3F94
:1044A400814FB73C2D495B3F7CB658E942525B3F94
:1044B400F33964E8485B5B3FAFDCFD2D3F645B3F51
:1044C4009AC15DAE256D5B3FABE3CF5DFC755B3F91
:1044D400F54BB430C37E5B3FB86B7F1B7A875B3F81
:1044E400438CB91221905B3F1883FF0AB8985B3F55
:1044F400E98D02F93EA15B3F871C88D1B5A95B3FDA
:1045040008736A891CB25B3FA92B981573BA5B3F89
:10451400F1C6146BB9C25B3F922DF87EEFCA5B3FC4
:1045240096886F4615D35B3F3A7BBCB62ADB5B3F6C
:104534000FD735C52FE35B3FF165476724EB5B3F3E
:104544000AFC719208F35B3FDA9B4B3CDCFA5B3F5D
:104554003C9A7F5A9F025C3F6068CEE2510A5C3FFE
:10456400DF110ECBF3115C3FA8D0290985195C3FFC
:104574001679229305215C3FF0790E5F75285C3F24
:1045840067DC1963D42F5C3F1A44869522375C3F5D
:104594002037ABEC5F3E5C3F04FAF55E8C455C3F34
:1045A400C9A1E9E2A74C5C3FF55B1F6FB2535C3FC6
:1045B4008A3846FAAB5A5C3F0E60237B94615C3FB9
:1045C400922592E86B685C3FABF48339326F5C3FB1
:1045D40082990065E7755C3FC7F825628B7C5C3F78
:1045E400CB9F28281E835C3F6A4653AE9F895C3F5D
:1045F400192907EC0F905C3FF22CBCD86E965C3FF7
:10460400A6A9006CBC9C5C3F8DB1799DF8A25C3F6F
:10461400A611E36423A95C3F8E2D0FBA3CAF5C3F27
:104624009359E79444B55C3FB8DA6BED3ABB5C3F11
:10463400A4B0B3BB1FC15C3FB6EFECF7F2C65C3F5E
:1046440005AF5C9AB4CC5C3F58F65E9B64D25C3F89
:104654003B1867F302D85C3FF27BFF9A8FDD5C3F27
:1046640086D3C98A0AE35C3FB9E57EBB73E85C3F45
:104674001AFAEE25CBED5C3F00A301C310F35C3FB7
:1046840089E1B58B44F85C3F9F13227966FD5C3F5A
:10469400FC29748476025D3F2DA8F1A674075D3F62
:1046A4009092F7D9600C5D3F5CA4FA163B115D3F14
:1046B400992B875703165D3F303F4195B91A5D3FEB
:1046C400E7BEE4C95D1F5D3F5D4145EFEF235D3FFC
:1046D4001A5C4EFF6F285D3F7B3703F4DD2C5D3F92
:1046E400D5547FC739315D3F54C8F57383355D3F79
:1046F4000FC9B1F3BA395D3F17C31641E03D5D3FC1
:1047040051D99F56F3415D3FABABE02EF4455D3F7D
:10471400EBA284C4E2495D3FE2B64F12BF4D5D3F58
:104724003DA81D1389515D3FB1D8E2C140555D3F9D
:10473400E4BAAB19E6585D3F751A9D15795C5D3F87
:10474400012EF4B0F95F5D3F1E7306E767635D3FBA
:1047540062D241B3C3665D3F63B12C110D6A5D3F04
:10476400BDF265FC436D5D3F09E4A47068705D3F74
:10477400E661B9697A735D3FFAD78BE379765D3F79
:10478400EF2E1DDA66795D3F84268749417C5D3FC3
:104794006CC5FB2D097F5D3F7C0DC683BE815D3FEB
:1047A4008C8F494761845D3F7A6B0275F1865D3F6A
:1047B40043BC85096F895D3FE92B8101DA8B5D3F3D
:1047C400874DBB59328E5D3F3E43130F78905D3F5A
:1047D400544E811EAB925D3F1C631685CB945D3FA6
:1047E400F628FC3FD9965D3F6454754CD4985D3FE0
:1047F400FC70DDA7BC9A5D3F7205A94F929C5D3F9A
:10480400885D6541559E5D3F21C0B87A05A05D3F36
:104814003C8162F9A2A15D3FF5DD3ABB2DA35D3F6A
:10482400820E33BEA5A45D3F354655000BA65D3F01
:104834007AA1C47F5DA75D3FED91BD3A9DA85D3F20
:10484400363C952FCAA95D3F25F6B95CE4AA5D3FC5
:10485400AE34B3C0EBAB5D3FDE55215AE0AC5D3FF7
:10486400E6D6BD27C2AD5D3F1F665B2891AE5D3FB6
:10487400FDACE55A4DAF5D3F166261BEF6AF5D3FDC
:104884002A7FEC518DB05D3F17F9BD1411B15D3F26
:10489400E1F5250682B15D3FA8968D25E0B15D3F27
:1048A400BE5177722BB25D3F8F987EEC63B25D3F51
:1048B400A8E9579389B25D3FCC3CD1669CB25D3F79
:1048C400CC3CD1669CB25D3FA8E9579389B25D3F69
:1048D4008F987EEC63B25D3FBE5177722BB25D3F21
:1048E400A8968D25E0B15D3FE1F5250682B15D3FD7
:1048F40017F9BD1411B15D3F2A7FEC518DB05D3FB6
:10490400166261BEF6AF5D3FFDACE55A4DAF5D3F4B
:104914001F665B2891AE5D3FE6D6BD27C2AD5D3F05
:10492400DE55215AE0AC5D3FAE34B3C0EBAB5D3F26
:1049340025F6B95CE4AA5D3F363C952FCAA95D3FD4
:10494400ED91BD3A9DA85D3F7AA1C47F5DA75D3F0F
:10495400354655000BA65D3F820E33BEA5A45D3FD0
:10496400F5DD3ABB2DA35D3F3C8162F9A2A15D3F19
:1049740021C0B87A05A05D3F885D6541559E5D3FC5
:104984007205A94F929C5D3FFC70DDA7BC9A5D3F08
:104994006454754CD4985D3FF628FC3FD9965D3F2E
:1049A4001C631685CB945D3F544E811EAB925D3FD4
:1049B4003E43130F78905D3F874DBB59328E5D3F68
:1049C400E92B8101DA8B5D3F43BC85096F895D3F2B
:1049D4007A6B0275F1865D3F8C8F494761845D3F38
:1049E4007C0DC683BE815D3F6CC5FB2D097F5D3F99
:1049F40084268749417C5D3FEF2E1DDA66795D3F51
:104A0400FAD78BE379765D3FE661B9697A735D3FE6
:104A140009E4A47068705D3FBDF265FC436D5D3FC1
:104A240063B12C110D6A5D3F62D241B3C3665D3F31
:104A34001E7306E767635D3F012EF4B0F95F5D3FC7
:104A4400751A9D15795C5D3FE4BAAB19E6585D3F74
:104A5400B1D8E2C140555D3F3DA81D1389515D3F6A
:104A6400E2B64F12BF4D5D3FEBA284C4E2495D3F05
:104A7400ABABE02EF4455D3F51D99F56F3415D3F0A
:104A840017C31641E03D5D3F0FC9B1F3BA395D3F2D
:104A940054C8F57383355D3FD5547FC739315D3FC5
:104AA4007B3703F4DD2C5D3F1A5C4EFF6F285D3FBE
:104AB4005D4145EFEF235D3FE7BEE4C95D1F5D3F08
:104AC400303F4195B91A5D3F992B875703165D3FD7
:104AD4005CA4FA163B115D3F9092F7D9600C5D3FE0
:104AE4002DA8F1A674075D3FFC29748476025D3F0E
:104AF4009F13227966FD5C3F89E1B58B44F85C3FE6
:104B040000A301C310F35C3F1AFAEE25CBED5C3F22
:104B1400B9E57EBB73E85C3F86D3C98A0AE35C3F90
:104B2400F27BFF9A8FDD5C3F3B1867F302D85C3F52
:104B340058F65E9B64D25C3F05AF5C9AB4CC5C3F94
:104B4400B6EFECF7F2C65C3FA4B0B3BB1FC15C3F49
:104B5400B8DA6BED3ABB5C3F9359E79444B55C3FDC
:104B64008E2D0FBA3CAF5C3FA611E36423A95C3FD2
:104B74008DB1799DF8A25C3FA6A9006CBC9C5C3FFA
:104B8400F22CBCD86E965C3F192907EC0F905C3F61
:104B94006A4653AE9F895C3FCB9F28281E835C3FA7
:104BA400C7F825628B7C5C3F82990065E7755C3FA2
:104BB400ABF48339326F5C3F922592E86B685C3FBB
:104BC4000E60237B94615C3F8A3846FAAB5A5C3FA3
:104BD400F55B1F6FB2535C3FC9A1E9E2A74C5C3F90
:104BE40004FAF55E8C455C3F2037ABEC5F3E5C3FDE
:104BF4001A44869522375C3F67DC1963D42F5C3FE7
:104C0400F0790E5F75285C3F1679229305215C3F8D
:104C1400A8D0290985195C3FDF110ECBF3115C3F45
:104C24006068CEE2510A5C3F3C9A7F5A9F025C3F27
:104C3400DA9B4B3CDCFA5B3F0AFC719208F35B3F66
:104C4400F165476724EB5B3F0FD735C52FE35B3F27
:104C54003A7BBCB62ADB5B3F96886F4615D35B3F35
:104C6400922DF87EEFCA5B3FF1C6146BB9C25B3F6D
:104C7400A92B981573BA5B3F08736A891CB25B3F12
:104C8400871C88D1B5A95B3FE98D02F93EA15B3F42
:104C94001883FF0AB8985B3F438CB91221905B3F9D
:104CA400B86B7F1B7A875B3FF54BB430C37E5B3FA9
:104CB400ABE3CF5DFC755B3F9AC15DAE256D5B3F99
:104CC400AFDCFD2D3F645B3FF33964E8485B5B3F39
:104CD4007CB658E942525B3F814FB73C2D495B3F5C
:104CE4003BA46FEE07405B3FF83D850AD3365B3F3C
:104CF4000D5A0F9D8E2D5B3FC7A138B23A245B3FFE
:104D04007B603F56D71A5B3F7C71759564115B3F9E
:104D14000BE63F7CE2075B3F5E17171751FE5A3FD5
:104D24009CB88672B0F45A3FD06A2D9B00EB5A3F70
:104D3400F004BD9D41E15A3FD139FA8673D75A3FF9
:104D44001D86BC6396CD5A3F6778EE40AAC35A3F8E
:104D5400060F8D2BAFB95A3F2800A830A5AF5A3F94
:104D6400C283615D8CA55A3F9453EEBE649B5A3F47
:104D74001B7595622E915A3F9439B055E9865A3F76
:104D8400F93DAAA5957C5A3FF010016033725A3F51
:104D9400D3564492C2675A3FA493154A435D5A3F7F
:104DA400123D2895B5525A3F6672418119485A3FBF
:104DB4008AFC371C6F3D5A3F034EF473B6325A3F98
:104DC400E1287096EF275A3FCAD4B6911A1D5A3F6C
:104DD400EBD6E47337125A3FF5DF274B46075A3FA9
:104DE4001FDEBE2547FC593F1AB5F9113AF1593F68
:104DF4000208391E1FE6593F7593EE58F6DA593FFB
:104E040079C19CD0BFCF593F6E61D6937BC4593FC3
:104E140030383FB129B9593FDF158B37CAAD593FF7
:104E240008787E355DA2593F83F9EDB9E296593F82
:104E34007664BED35A8B593F528EE491C57F593F55
:104E4400CC4565032374593FE06455377368593F73
:104E5400B740D93CB65C593FB9152523EC50593FAE
:104E64007B9B7CF91445593FC32833CF3039593FD4
:104E74006C23ABB33F2D593F87A256B64121593F0E
:104E840032A8B6E63615593FA5575B541F09593F5A
:104E940028D1E30EFBFC583F0F20FE25CAF0583FF3
:104EA400B81667A98CE4583F7818EAA842D8583F46
:104EB400A83D6134ECCB583F991DB55B89BF583F81
:104EC4008074DC2E1AB3583F8E8FDCBD9EA6583FEB
:104ED400CBAAC818179A583F2415C24F838D583F40
:104EE4006C54F872E380583F375FA8923774583F88
:104EF400FA3E1DBF7F67583FEB6DAF08BC5A583F61
:104F04000C1FC57FEC4D583F18C0D1341141583F98
:104F1400872F56382A34583F8686E09A3727583FD9
:104F2400E9D00B6D391A583F3B5580BF2F0D583FC0
:104F34009E16F3A21A00583FDAF82528FAF2573FD2
:104F44004666E75FCEE5573FD797125B97D8573F42
:104F540000F38E2A55CB573FCD8750DF07BE573F0E
:104F6400BB5C578AAFB0573FCCC8AF3C4CA3573F4C
:104F740073077207DE95573F9A6EC2FB6488573FEA
:104F84008DF0D02AE17A573FFF3FD9A5526D573FA4
:104F940008BE227EB95F573F0D0E00C51552573F1C
:104FA400CE5DCF8B6744573F5B1DFAE3AE36573F68
:104FB40003B7F4DEEB28573F5CC53E8E1E1B573FFC
:104FC40038B96203470D573F9BC7F54F65FF563FFE
:104FD400BBE9978579F1563FF694F3B583E3563FE1
:104FE400D1CCBDF283D5563FEEDAB54D7AC7563FE4
:104FF400074FA5D866B9563FE3C85FA549AB563FEE
:105004005DF8C2C5229D563F5479B64BF28E563F89
:10501400A59D2B49B880563F23491DD07472563F35
:10502400A23990F22764563FD64092C2D155563FDA
:1050340062B03A527247563FCB11AAB30939563F70
:105044006FF009F9972A563F85D98C341D1C563FB9
:105054000F266E78990D563FE00CF2D60CFF553FA3
:105064008848656277F0553F54051D2DD9E1553FB9
:105074004CF3764932D3553F2AFED8C982C4553FF2
:105084004D29B1C0CAB5553FBE8F75400AA7553FDB
:105094002640A45B4198553FBFF4C2247089553F14
:1050A4005A255FAE967A553F58F50D0BB56B553FB3
:1050B4009CD96B4DCB5C553F81861C88D94D553F9F
:1050C400000000000000F0BF183D0A081010002086
:1050D40000000000000000000000000000000000CC
:1050E40000000000000000000000000000000000BC
:1050F40000000000000000000000000000000000AC
:10510400000000000000000000000000000000009B
:10511400000000000000000000000000000000008B
:10512400000000000000000000000000000000007B
:04513400F42400203F
:10513800FFFFFFFF00000102030405060708090A34
:105148000B0C0D0E0F101112131415161718191A2F
:085158001B1C1D1E1F20280076
:045160007856341237
:04000005080A0020C5
:00000001FF
